{"abi":[{"type":"constructor","inputs":[{"name":"_stakingToken","type":"address","internalType":"address"},{"name":"_fletch","type":"address","internalType":"address"},{"name":"_yew","type":"address","internalType":"address"},{"name":"_owner","type":"address","internalType":"address"}],"stateMutability":"nonpayable"},{"type":"function","name":"FEE_DIVISOR","inputs":[],"outputs":[{"name":"","type":"uint256","internalType":"uint256"}],"stateMutability":"view"},{"type":"function","name":"accFLETCHPerShare","inputs":[],"outputs":[{"name":"","type":"uint256","internalType":"uint256"}],"stateMutability":"view"},{"type":"function","name":"claimFLETCH","inputs":[],"outputs":[],"stateMutability":"nonpayable"},{"type":"function","name":"deposit","inputs":[{"name":"amount","type":"uint256","internalType":"uint256"}],"outputs":[],"stateMutability":"nonpayable"},{"type":"function","name":"emergencyWithdrawLPs","inputs":[{"name":"to","type":"address","internalType":"address"},{"name":"amount","type":"uint256","internalType":"uint256"}],"outputs":[],"stateMutability":"nonpayable"},{"type":"function","name":"fletch","inputs":[],"outputs":[{"name":"","type":"address","internalType":"contract FLETCH"}],"stateMutability":"view"},{"type":"function","name":"getPendingFLETCH","inputs":[{"name":"user","type":"address","internalType":"address"}],"outputs":[{"name":"","type":"uint256","internalType":"uint256"}],"stateMutability":"view"},{"type":"function","name":"harvest","inputs":[],"outputs":[],"stateMutability":"nonpayable"},{"type":"function","name":"lastRewardTime","inputs":[],"outputs":[{"name":"","type":"uint256","internalType":"uint256"}],"stateMutability":"view"},{"type":"function","name":"owner","inputs":[],"outputs":[{"name":"","type":"address","internalType":"address"}],"stateMutability":"view"},{"type":"function","name":"performanceFeeNumerator","inputs":[],"outputs":[{"name":"","type":"uint256","internalType":"uint256"}],"stateMutability":"view"},{"type":"function","name":"renounceOwnership","inputs":[],"outputs":[],"stateMutability":"nonpayable"},{"type":"function","name":"rewardDebt","inputs":[{"name":"","type":"address","internalType":"address"}],"outputs":[{"name":"","type":"uint256","internalType":"uint256"}],"stateMutability":"view"},{"type":"function","name":"rewardRate","inputs":[],"outputs":[{"name":"","type":"uint256","internalType":"uint256"}],"stateMutability":"view"},{"type":"function","name":"setFees","inputs":[{"name":"_performanceFee","type":"uint256","internalType":"uint256"},{"name":"_withdrawalFee","type":"uint256","internalType":"uint256"}],"outputs":[],"stateMutability":"nonpayable"},{"type":"function","name":"setRewardRate","inputs":[{"name":"_rate","type":"uint256","internalType":"uint256"}],"outputs":[],"stateMutability":"nonpayable"},{"type":"function","name":"shares","inputs":[{"name":"","type":"address","internalType":"address"}],"outputs":[{"name":"","type":"uint256","internalType":"uint256"}],"stateMutability":"view"},{"type":"function","name":"stakingToken","inputs":[],"outputs":[{"name":"","type":"address","internalType":"contract IERC20"}],"stateMutability":"view"},{"type":"function","name":"totalShares","inputs":[],"outputs":[{"name":"","type":"uint256","internalType":"uint256"}],"stateMutability":"view"},{"type":"function","name":"transferOwnership","inputs":[{"name":"newOwner","type":"address","internalType":"address"}],"outputs":[],"stateMutability":"nonpayable"},{"type":"function","name":"withdraw","inputs":[{"name":"sharesToRedeem","type":"uint256","internalType":"uint256"}],"outputs":[],"stateMutability":"nonpayable"},{"type":"function","name":"withdrawalFeeNumerator","inputs":[],"outputs":[{"name":"","type":"uint256","internalType":"uint256"}],"stateMutability":"view"},{"type":"function","name":"yew","inputs":[],"outputs":[{"name":"","type":"address","internalType":"address"}],"stateMutability":"view"},{"type":"event","name":"ClaimFLETCH","inputs":[{"name":"user","type":"address","indexed":true,"internalType":"address"},{"name":"amount","type":"uint256","indexed":false,"internalType":"uint256"}],"anonymous":false},{"type":"event","name":"Deposit","inputs":[{"name":"user","type":"address","indexed":true,"internalType":"address"},{"name":"amount","type":"uint256","indexed":false,"internalType":"uint256"},{"name":"sharesMinted","type":"uint256","indexed":false,"internalType":"uint256"}],"anonymous":false},{"type":"event","name":"Harvest","inputs":[{"name":"harvester","type":"address","indexed":true,"internalType":"address"},{"name":"rewardMinted","type":"uint256","indexed":false,"internalType":"uint256"},{"name":"feeToYEW","type":"uint256","indexed":false,"internalType":"uint256"}],"anonymous":false},{"type":"event","name":"OwnershipTransferred","inputs":[{"name":"previousOwner","type":"address","indexed":true,"internalType":"address"},{"name":"newOwner","type":"address","indexed":true,"internalType":"address"}],"anonymous":false},{"type":"event","name":"SetRewardRate","inputs":[{"name":"oldRate","type":"uint256","indexed":false,"internalType":"uint256"},{"name":"newRate","type":"uint256","indexed":false,"internalType":"uint256"}],"anonymous":false},{"type":"event","name":"UpdateFees","inputs":[{"name":"performanceFeeNumerator","type":"uint256","indexed":false,"internalType":"uint256"},{"name":"withdrawalFeeNumerator","type":"uint256","indexed":false,"internalType":"uint256"}],"anonymous":false},{"type":"event","name":"Withdraw","inputs":[{"name":"user","type":"address","indexed":true,"internalType":"address"},{"name":"lpReturned","type":"uint256","indexed":false,"internalType":"uint256"},{"name":"sharesBurned","type":"uint256","indexed":false,"internalType":"uint256"},{"name":"feePaid","type":"uint256","indexed":false,"internalType":"uint256"}],"anonymous":false},{"type":"error","name":"AddressEmptyCode","inputs":[{"name":"target","type":"address","internalType":"address"}]},{"type":"error","name":"AddressInsufficientBalance","inputs":[{"name":"account","type":"address","internalType":"address"}]},{"type":"error","name":"FailedInnerCall","inputs":[]},{"type":"error","name":"OwnableInvalidOwner","inputs":[{"name":"owner","type":"address","internalType":"address"}]},{"type":"error","name":"OwnableUnauthorizedAccount","inputs":[{"name":"account","type":"address","internalType":"address"}]},{"type":"error","name":"ReentrancyGuardReentrantCall","inputs":[]},{"type":"error","name":"SafeERC20FailedOperation","inputs":[{"name":"token","type":"address","internalType":"address"}]}],"bytecode":{"object":"0x60e0346200023857601f620016c138819003918201601f191683019291906001600160401b038411838510176200023c57816080928492604096875283398101031262000238576060620000538262000250565b620000616020840162000250565b6200006e85850162000250565b936001600160a01b0393849162000086910162000250565b1691821562000221575f80546001600160a01b031981168517825587519486939290918416907f8be0079c531659141344cd1fd0a4f28419497f9722a3daafe3b4186f6b6457e09080a3600180556103e8600855603260095516918215620001df57508216918215620001a657831615620001705760805260a05260c052426003555161145b908162000266823960805181818161040c01528181610795015281816109630152610b6a015260a051818181610289015281816106ec01528181610dea015281816111de0152611353015260c051818181610130015281816105730152610ef80152f35b835162461bcd60e51b815260206004820152600f60248201526e4752415a453a207a65726f2079657760881b6044820152606490fd5b845162461bcd60e51b815260206004820152601260248201527108ea482b48a7440f4cae4de40ccd8cae8c6d60731b6044820152606490fd5b62461bcd60e51b815260206004820152601960248201527f4752415a453a207a65726f207374616b696e6720746f6b656e000000000000006044820152606490fd5b8551631e4fbdf760e01b81525f6004820152602490fd5b5f80fd5b634e487b7160e01b5f52604160045260245ffd5b51906001600160a01b0382168203620002385756fe60406080815260049081361015610014575f80fd5b5f91823560e01c9081630a90c6fd14610b355781630b78f9c014610a4b5781631823a05c14610a2c5781632e1a7d4d146108ec5781633a98ef39146108cd5781634641257d146108a55781634d4dded6146108865781635873eb9b1461084e578163669bdce414610821578163715018a6146107c457816372f702f3146107805781637b0a47ee146107625781638da5cb5b1461073a5781639231cf741461071b5781639e25aff2146106d75781639e447fc61461066b5781639e93ad8e1461064e578163b6b55f25146103c2578163b74a68d7146103a3578163ce7c2ac21461036b578163da4718e3146101ee578163f2fde38b14610163575063f706d57d1461011d575f80fd5b3461015f578160031936011261015f57517f00000000000000000000000000000000000000000000000000000000000000006001600160a01b03168152602090f35b5080fd5b9050346101ea5760203660031901126101ea5761017e610b91565b90610187610bab565b6001600160a01b039182169283156101d457505082546001600160a01b0319811683178455167f8be0079c531659141344cd1fd0a4f28419497f9722a3daafe3b4186f6b6457e08380a380f35b51631e4fbdf760e01b8152908101849052602490fd5b8280fd5b8391503461015f578160031936011261015f57610209610d02565b610212336112b6565b61021b33610c35565b908115610328576102849293829133865260209283916006835264e8d4a5100061024b858a205460025490610bf7565b33808b5260078652868b2092909104909155845163a9059cbb60e01b815291820190815260208101929092529586918291604090910190565b0381887f00000000000000000000000000000000000000000000000000000000000000006001600160a01b03165af193841561031e577fbf355c83b41c216c147f58af7a21c7004b15d6413f1916bdabab14b269a1068993946102f1575b50519283523392a26001805580f35b61031090833d8511610317575b6103088183610d8e565b810190610db0565b50856102e2565b503d6102fe565b81513d87823e3d90fd5b606490602085519162461bcd60e51b8352820152601760248201527f4752415a453a206e6f7468696e6720746f20636c61696d0000000000000000006044820152fd5b50503461015f57602036600319011261015f5760209181906001600160a01b03610393610b91565b1681526006845220549051908152f35b50503461015f578160031936011261015f576020906008549051908152f35b9050346101ea576020918260031936011261064a578135916103e2610d02565b6103eb336112b6565b6103f6831515610d25565b81516370a0823160e01b808252308284015290937f0000000000000000000000000000000000000000000000000000000000000000926001600160a01b0384169290918787602481875afa96871561064057899761060d575b508551906323b872dd60e01b8983015233602483015230604483015260648201526064815260a0810181811067ffffffffffffffff8211176105fa579161049d6024928a9594895287611028565b86519485938492835230908301525afa9081156105f057869161059f575b507f90890809c654f11d6e72a28fa60149770a0d11ec6c92319d6ceb2bb0a4ea1a15936104e791610bd6565b906105026127106104fa60095485610bf7565b048093610bd6565b918061056d575b505033855260068452818520610520828254610c28565b905561052e81600554610c28565b6005553385526006845264e8d4a5100061054e8387205460025490610bf7565b0433865260078552828620558151938185528401523392a26001805580f35b610598917f000000000000000000000000000000000000000000000000000000000000000090610fe5565b5f80610509565b90508481813d83116105e9575b6105b68183610d8e565b810103126105e557517f90890809c654f11d6e72a28fa60149770a0d11ec6c92319d6ceb2bb0a4ea1a156104bb565b8580fd5b503d6105ac565b83513d88823e3d90fd5b634e487b7160e01b8a526041845260248afd5b9096508781813d8311610639575b6106258183610d8e565b810103126106355751955f61044f565b8880fd5b503d61061b565b86513d8b823e3d90fd5b8380fd5b50503461015f578160031936011261015f57602090516127108152f35b919050346101ea5760203660031901126101ea57817f847d443329ffc31096a4dd9f2e3af502a94bf805cdd3850feaf7d96e7d06541592356106ab610bab565b6005546106ca575b80825492554260035582519182526020820152a180f35b6106d2611150565b6106b3565b50503461015f578160031936011261015f57517f00000000000000000000000000000000000000000000000000000000000000006001600160a01b03168152602090f35b50503461015f578160031936011261015f576020906003549051908152f35b50503461015f578160031936011261015f57905490516001600160a01b039091168152602090f35b9050346101ea57826003193601126101ea5760209250549051908152f35b50503461015f578160031936011261015f57517f00000000000000000000000000000000000000000000000000000000000000006001600160a01b03168152602090f35b833461081e578060031936011261081e576107dd610bab565b80546001600160a01b03198116825581906001600160a01b03167f8be0079c531659141344cd1fd0a4f28419497f9722a3daafe3b4186f6b6457e08280a380f35b80fd5b50503461015f57602036600319011261015f57602090610847610842610b91565b610c35565b9051908152f35b50503461015f57602036600319011261015f5760209181906001600160a01b03610876610b91565b1681526007845220549051908152f35b50503461015f578160031936011261015f576020906002549051908152f35b833461081e578060031936011261081e576108be610d02565b6108c6610dc8565b6001805580f35b50503461015f578160031936011261015f576020906005549051908152f35b919050346101ea576020918260031936011261064a5780359061090d610d02565b610918821515610d25565b338552600684528183862054106109e95750908391610936336112b6565b3383526006845281832061094b828254610bd6565b905561095981600554610bd6565b60055561098781337f0000000000000000000000000000000000000000000000000000000000000000610fe5565b3383526006845264e8d4a510006109a48385205460025490610bf7565b0433845260078552828420558151938185528401528201527f02f25270a4d87bea75db541cdfe559334a275b4a233520ed6c0a2429667cca9460603392a26001805580f35b825162461bcd60e51b8152908101849052601a60248201527f4752415a453a20696e73756666696369656e74207368617265730000000000006044820152606490fd5b50503461015f578160031936011261015f576020906009549051908152f35b83833461015f578060031936011261015f57823560243593610a6b610bab565b6107d08211610af2576101f48511610ab757507f53482196ef67ac615caab1c3eca2c270acbfdcd75e57c5f24c1b98b10c8e6e049293816008558060095582519182526020820152a180f35b606490602084519162461bcd60e51b835282015260156024820152744752415a453a2077647720666565206d617820352560581b6044820152fd5b606490602084519162461bcd60e51b8352820152601760248201527f4752415a453a207065726620666565206d6178203230250000000000000000006044820152fd5b50503461015f5736600319011261081e57610b8e610b51610b91565b60243590610b5d610bab565b610b68821515610d25565b7f0000000000000000000000000000000000000000000000000000000000000000610fe5565b80f35b600435906001600160a01b0382168203610ba757565b5f80fd5b5f546001600160a01b03163303610bbe57565b60405163118cdaa760e01b8152336004820152602490fd5b91908203918211610be357565b634e487b7160e01b5f52601160045260245ffd5b81810292918115918404141715610be357565b8115610c14570490565b634e487b7160e01b5f52601260045260245ffd5b91908201809211610be357565b6001600160a01b03165f81815260066020526040812054909291908015610cfe57600254600354610c74600454610c6f6005549342610bd6565b610bf7565b8115610ce45764e8d4a5100090818102918183041490151715610cd057604093610cb6610ccd979894610cb064e8d4a5100095610cbc95610c0a565b90610c28565b90610bf7565b049281526007602052205490610bd6565b90565b634e487b7160e01b87526011600452602487fd5b50509364e8d4a51000610cbc604093610ccd969790610bf7565b5050565b600260015414610d13576002600155565b604051633ee5aeb560e01b8152600490fd5b15610d2c57565b60405162461bcd60e51b815260206004820152601260248201527111d49056914e881e995c9bc8185b5bdd5b9d60721b6044820152606490fd5b67ffffffffffffffff8111610d7a57604052565b634e487b7160e01b5f52604160045260245ffd5b90601f8019910116810190811067ffffffffffffffff821117610d7a57604052565b90816020910312610ba757518015158103610ba75790565b610dd1336112b6565b604080516370a0823160e01b81523060048201525f92917f00000000000000000000000000000000000000000000000000000000000000006001600160a01b0316916020908181602481875afa80156105f057908291610fb8575b505060055415610fad57610e4e610e4560035442610bd6565b60045490610bf7565b9081610e61575b50505050905042600355565b833b156105e55782516340c10f1960e01b815230600482015260248101839052868160448183895af18015610f9057610f9a575b50610ea86127106104fa60085485610bf7565b9382610eea575b507f71bab65ced2e5750775a0613be067df48ef06cf92a496ebf7663ae06609249549394955082519485528401523392a2805f808080610e55565b835163a9059cbb60e01b81527f00000000000000000000000000000000000000000000000000000000000000006001600160a01b0316600482015260248101849052908290829060449082908b905af18015610f90577f71bab65ced2e5750775a0613be067df48ef06cf92a496ebf7663ae066092495495969750610f73575b86959450610eaf565b610f8990823d8411610317576103088183610d8e565b505f610f6a565b84513d89823e3d90fd5b610fa690969196610d66565b945f610e95565b505050905042600355565b813d8311610fde575b610fcb8183610d8e565b81010312610fda57805f610e2c565b8480fd5b503d610fc1565b60405163a9059cbb60e01b60208201526001600160a01b0392909216602483015260448083019390935291815261102691611021606483610d8e565b611028565b565b60018060a01b0316905f80826020829451910182865af13d156110e0573d67ffffffffffffffff81116110cc57604051611083939291611072601f8201601f191660200183610d8e565b8152809260203d92013e5b836110ed565b80519081151591826110b1575b50506110995750565b60249060405190635274afe760e01b82526004820152fd5b6110c49250602080918301019101610db0565b155f80611090565b634e487b7160e01b83526041600452602483fd5b611083915060609061107d565b90611114575080511561110257805190602001fd5b604051630a12f52160e11b8152600490fd5b81511580611147575b611125575090565b604051639996b31560e01b81526001600160a01b039091166004820152602490fd5b50803b1561111d565b5f6005546003546004549082156112ac5761116b9042610bd6565b9081156112a65761117b91610bf7565b801580156111dc575b5050504260035580806111c7575b6111995750565b8080526006602052604064e8d4a510006111b98284205460025490610bf7565b049180805260076020522055565b50808052600660205260408120541515611192565b7f00000000000000000000000000000000000000000000000000000000000000006001600160a01b0316803b15610fda576040516340c10f1960e01b8152306004820152602481018490529085908290604490829084905af1801561129b57611288575b5064e8d4a51000808302928304141715611274576112699161126191610c0a565b600254610c28565b6002555f8080611184565b634e487b7160e01b83526011600452602483fd5b61129490949194610d66565b925f611240565b6040513d87823e3d90fd5b50505050565b5050505042600355565b600554905f9160035460045490821561141a576112d39042610bd6565b908115611413576112e391610bf7565b80158015611351575b505042600355506001600160a01b0316908115158061133c575b61130e575050565b808260409252600660205264e8d4a5100061132f8383205460025490610bf7565b0492815260076020522055565b50818152600660205260408120541515611306565b7f00000000000000000000000000000000000000000000000000000000000000006001600160a01b0316803b156105e5576040516340c10f1960e01b8152306004820152602481018490529086908290604490829084905af18015611408576113f5575b5064e8d4a510008083029283041417156113e1576113d69161126191610c0a565b6002555f80806112ec565b634e487b7160e01b84526011600452602484fd5b61140190959195610d66565b935f6113b5565b6040513d88823e3d90fd5b5050505050565b50505050504260035556fea2646970667358221220b12bb06c64abe1f0d4ec5e74656bd3c57dca512d026cfc3048ee3765015a3de764736f6c63430008140033","linkReferences":{}},"methodIdentifiers":{"FEE_DIVISOR()":"9e93ad8e","accFLETCHPerShare()":"4d4dded6","claimFLETCH()":"da4718e3","deposit(uint256)":"b6b55f25","emergencyWithdrawLPs(address,uint256)":"0a90c6fd","fletch()":"9e25aff2","getPendingFLETCH(address)":"669bdce4","harvest()":"4641257d","lastRewardTime()":"9231cf74","owner()":"8da5cb5b","performanceFeeNumerator()":"b74a68d7","renounceOwnership()":"715018a6","rewardDebt(address)":"5873eb9b","rewardRate()":"7b0a47ee","setFees(uint256,uint256)":"0b78f9c0","setRewardRate(uint256)":"9e447fc6","shares(address)":"ce7c2ac2","stakingToken()":"72f702f3","totalShares()":"3a98ef39","transferOwnership(address)":"f2fde38b","withdraw(uint256)":"2e1a7d4d","withdrawalFeeNumerator()":"1823a05c","yew()":"f706d57d"},"id":37}