{"abi":[{"type":"constructor","inputs":[{"name":"_stakingToken","type":"address","internalType":"address"},{"name":"_fletch","type":"address","internalType":"address"},{"name":"_yew","type":"address","internalType":"address"},{"name":"_owner","type":"address","internalType":"address"}],"stateMutability":"nonpayable"},{"type":"function","name":"FEE_DIVISOR","inputs":[],"outputs":[{"name":"","type":"uint256","internalType":"uint256"}],"stateMutability":"view"},{"type":"function","name":"accFLETCHPerShare","inputs":[],"outputs":[{"name":"","type":"uint256","internalType":"uint256"}],"stateMutability":"view"},{"type":"function","name":"claimFLETCH","inputs":[],"outputs":[],"stateMutability":"nonpayable"},{"type":"function","name":"deposit","inputs":[{"name":"amount","type":"uint256","internalType":"uint256"}],"outputs":[],"stateMutability":"nonpayable"},{"type":"function","name":"emergencyWithdrawLPs","inputs":[{"name":"to","type":"address","internalType":"address"},{"name":"amount","type":"uint256","internalType":"uint256"}],"outputs":[],"stateMutability":"nonpayable"},{"type":"function","name":"fletch","inputs":[],"outputs":[{"name":"","type":"address","internalType":"contract FLETCH"}],"stateMutability":"view"},{"type":"function","name":"getPendingFLETCH","inputs":[{"name":"user","type":"address","internalType":"address"}],"outputs":[{"name":"","type":"uint256","internalType":"uint256"}],"stateMutability":"view"},{"type":"function","name":"harvest","inputs":[],"outputs":[],"stateMutability":"nonpayable"},{"type":"function","name":"lastRewardTime","inputs":[],"outputs":[{"name":"","type":"uint256","internalType":"uint256"}],"stateMutability":"view"},{"type":"function","name":"owner","inputs":[],"outputs":[{"name":"","type":"address","internalType":"address"}],"stateMutability":"view"},{"type":"function","name":"performanceFeeNumerator","inputs":[],"outputs":[{"name":"","type":"uint256","internalType":"uint256"}],"stateMutability":"view"},{"type":"function","name":"renounceOwnership","inputs":[],"outputs":[],"stateMutability":"nonpayable"},{"type":"function","name":"rewardDebt","inputs":[{"name":"","type":"address","internalType":"address"}],"outputs":[{"name":"","type":"uint256","internalType":"uint256"}],"stateMutability":"view"},{"type":"function","name":"rewardRate","inputs":[],"outputs":[{"name":"","type":"uint256","internalType":"uint256"}],"stateMutability":"view"},{"type":"function","name":"setFees","inputs":[{"name":"_performanceFee","type":"uint256","internalType":"uint256"},{"name":"_withdrawalFee","type":"uint256","internalType":"uint256"}],"outputs":[],"stateMutability":"nonpayable"},{"type":"function","name":"setRewardRate","inputs":[{"name":"_rate","type":"uint256","internalType":"uint256"}],"outputs":[],"stateMutability":"nonpayable"},{"type":"function","name":"shares","inputs":[{"name":"","type":"address","internalType":"address"}],"outputs":[{"name":"","type":"uint256","internalType":"uint256"}],"stateMutability":"view"},{"type":"function","name":"stakingToken","inputs":[],"outputs":[{"name":"","type":"address","internalType":"contract IERC20"}],"stateMutability":"view"},{"type":"function","name":"totalShares","inputs":[],"outputs":[{"name":"","type":"uint256","internalType":"uint256"}],"stateMutability":"view"},{"type":"function","name":"transferOwnership","inputs":[{"name":"newOwner","type":"address","internalType":"address"}],"outputs":[],"stateMutability":"nonpayable"},{"type":"function","name":"withdraw","inputs":[{"name":"sharesToRedeem","type":"uint256","internalType":"uint256"}],"outputs":[],"stateMutability":"nonpayable"},{"type":"function","name":"withdrawalFeeNumerator","inputs":[],"outputs":[{"name":"","type":"uint256","internalType":"uint256"}],"stateMutability":"view"},{"type":"function","name":"yew","inputs":[],"outputs":[{"name":"","type":"address","internalType":"address"}],"stateMutability":"view"},{"type":"event","name":"ClaimFLETCH","inputs":[{"name":"user","type":"address","indexed":true,"internalType":"address"},{"name":"amount","type":"uint256","indexed":false,"internalType":"uint256"}],"anonymous":false},{"type":"event","name":"Deposit","inputs":[{"name":"user","type":"address","indexed":true,"internalType":"address"},{"name":"amount","type":"uint256","indexed":false,"internalType":"uint256"},{"name":"sharesMinted","type":"uint256","indexed":false,"internalType":"uint256"}],"anonymous":false},{"type":"event","name":"Harvest","inputs":[{"name":"harvester","type":"address","indexed":true,"internalType":"address"},{"name":"rewardMinted","type":"uint256","indexed":false,"internalType":"uint256"},{"name":"feeToYEW","type":"uint256","indexed":false,"internalType":"uint256"}],"anonymous":false},{"type":"event","name":"OwnershipTransferred","inputs":[{"name":"previousOwner","type":"address","indexed":true,"internalType":"address"},{"name":"newOwner","type":"address","indexed":true,"internalType":"address"}],"anonymous":false},{"type":"event","name":"SetRewardRate","inputs":[{"name":"oldRate","type":"uint256","indexed":false,"internalType":"uint256"},{"name":"newRate","type":"uint256","indexed":false,"internalType":"uint256"}],"anonymous":false},{"type":"event","name":"UpdateFees","inputs":[{"name":"performanceFeeNumerator","type":"uint256","indexed":false,"internalType":"uint256"},{"name":"withdrawalFeeNumerator","type":"uint256","indexed":false,"internalType":"uint256"}],"anonymous":false},{"type":"event","name":"Withdraw","inputs":[{"name":"user","type":"address","indexed":true,"internalType":"address"},{"name":"lpReturned","type":"uint256","indexed":false,"internalType":"uint256"},{"name":"sharesBurned","type":"uint256","indexed":false,"internalType":"uint256"},{"name":"feePaid","type":"uint256","indexed":false,"internalType":"uint256"}],"anonymous":false},{"type":"error","name":"AddressEmptyCode","inputs":[{"name":"target","type":"address","internalType":"address"}]},{"type":"error","name":"AddressInsufficientBalance","inputs":[{"name":"account","type":"address","internalType":"address"}]},{"type":"error","name":"FailedInnerCall","inputs":[]},{"type":"error","name":"OwnableInvalidOwner","inputs":[{"name":"owner","type":"address","internalType":"address"}]},{"type":"error","name":"OwnableUnauthorizedAccount","inputs":[{"name":"account","type":"address","internalType":"address"}]},{"type":"error","name":"ReentrancyGuardReentrantCall","inputs":[]},{"type":"error","name":"SafeERC20FailedOperation","inputs":[{"name":"token","type":"address","internalType":"address"}]}],"bytecode":{"object":"0x60e06040526103e860085560326009553480156200001b575f80fd5b5060405162002955380380620029558339818101604052810190620000419190620003f4565b805f73ffffffffffffffffffffffffffffffffffffffff168173ffffffffffffffffffffffffffffffffffffffff1603620000b5575f6040517f1e4fbdf7000000000000000000000000000000000000000000000000000000008152600401620000ac919062000474565b60405180910390fd5b620000c681620002ce60201b60201c565b50600180819055505f73ffffffffffffffffffffffffffffffffffffffff168473ffffffffffffffffffffffffffffffffffffffff16036200013f576040517f08c379a00000000000000000000000000000000000000000000000000000000081526004016200013690620004ed565b60405180910390fd5b5f73ffffffffffffffffffffffffffffffffffffffff168373ffffffffffffffffffffffffffffffffffffffff1603620001b0576040517f08c379a0000000000000000000000000000000000000000000000000000000008152600401620001a7906200055b565b60405180910390fd5b5f73ffffffffffffffffffffffffffffffffffffffff168273ffffffffffffffffffffffffffffffffffffffff160362000221576040517f08c379a00000000000000000000000000000000000000000000000000000000081526004016200021890620005c9565b60405180910390fd5b8373ffffffffffffffffffffffffffffffffffffffff1660808173ffffffffffffffffffffffffffffffffffffffff16815250508273ffffffffffffffffffffffffffffffffffffffff1660a08173ffffffffffffffffffffffffffffffffffffffff16815250508173ffffffffffffffffffffffffffffffffffffffff1660c08173ffffffffffffffffffffffffffffffffffffffff16815250504260038190555050505050620005e9565b5f805f9054906101000a900473ffffffffffffffffffffffffffffffffffffffff169050815f806101000a81548173ffffffffffffffffffffffffffffffffffffffff021916908373ffffffffffffffffffffffffffffffffffffffff1602179055508173ffffffffffffffffffffffffffffffffffffffff168173ffffffffffffffffffffffffffffffffffffffff167f8be0079c531659141344cd1fd0a4f28419497f9722a3daafe3b4186f6b6457e060405160405180910390a35050565b5f80fd5b5f73ffffffffffffffffffffffffffffffffffffffff82169050919050565b5f620003be8262000393565b9050919050565b620003d081620003b2565b8114620003db575f80fd5b50565b5f81519050620003ee81620003c5565b92915050565b5f805f80608085870312156200040f576200040e6200038f565b5b5f6200041e87828801620003de565b94505060206200043187828801620003de565b93505060406200044487828801620003de565b92505060606200045787828801620003de565b91505092959194509250565b6200046e81620003b2565b82525050565b5f602082019050620004895f83018462000463565b92915050565b5f82825260208201905092915050565b7f4752415a453a207a65726f207374616b696e6720746f6b656e000000000000005f82015250565b5f620004d56019836200048f565b9150620004e2826200049f565b602082019050919050565b5f6020820190508181035f8301526200050681620004c7565b9050919050565b7f4752415a453a207a65726f20666c6574636800000000000000000000000000005f82015250565b5f620005436012836200048f565b915062000550826200050d565b602082019050919050565b5f6020820190508181035f830152620005748162000535565b9050919050565b7f4752415a453a207a65726f2079657700000000000000000000000000000000005f82015250565b5f620005b1600f836200048f565b9150620005be826200057b565b602082019050919050565b5f6020820190508181035f830152620005e281620005a3565b9050919050565b60805160a05160c0516122e66200066f5f395f818161083f01528181610e2c015261165e01525f818161066c015281816107460152818161080301528181610ae101528181610cb30152610ffa01525f818161044001528181610a8a01528181611254015281816114990152818161153901528181611582015261168001526122e65ff3fe608060405234801561000f575f80fd5b506004361061014b575f3560e01c80637b0a47ee116100c1578063b6b55f251161007a578063b6b55f2514610341578063b74a68d71461035d578063ce7c2ac21461037b578063da4718e3146103ab578063f2fde38b146103b5578063f706d57d146103d15761014b565b80637b0a47ee1461028f5780638da5cb5b146102ad5780639231cf74146102cb5780639e25aff2146102e95780639e447fc6146103075780639e93ad8e146103235761014b565b80634641257d116101135780634641257d146101df5780634d4dded6146101e95780635873eb9b14610207578063669bdce414610237578063715018a61461026757806372f702f3146102715761014b565b80630a90c6fd1461014f5780630b78f9c01461016b5780631823a05c146101875780632e1a7d4d146101a55780633a98ef39146101c1575b5f80fd5b61016960048036038101906101649190611b86565b6103ef565b005b61018560048036038101906101809190611bc4565b610488565b005b61018f610565565b60405161019c9190611c11565b60405180910390f35b6101bf60048036038101906101ba9190611c2a565b61056b565b005b6101c9610652565b6040516101d69190611c11565b60405180910390f35b6101e7610658565b005b6101f1610926565b6040516101fe9190611c11565b60405180910390f35b610221600480360381019061021c9190611c55565b61092c565b60405161022e9190611c11565b60405180910390f35b610251600480360381019061024c9190611c55565b610941565b60405161025e9190611c11565b60405180910390f35b61026f610a75565b005b610279610a88565b6040516102869190611cdb565b60405180910390f35b610297610aac565b6040516102a49190611c11565b60405180910390f35b6102b5610ab2565b6040516102c29190611d03565b60405180910390f35b6102d3610ad9565b6040516102e09190611c11565b60405180910390f35b6102f1610adf565b6040516102fe9190611d3c565b60405180910390f35b610321600480360381019061031c9190611c2a565b610b03565b005b61032b610b70565b6040516103389190611c11565b60405180910390f35b61035b60048036038101906103569190611c2a565b610b76565b005b610365610b9b565b6040516103729190611c11565b60405180910390f35b61039560048036038101906103909190611c55565b610ba1565b6040516103a29190611c11565b60405180910390f35b6103b3610bb6565b005b6103cf60048036038101906103ca9190611c55565b610da6565b005b6103d9610e2a565b6040516103e69190611d03565b60405180910390f35b6103f7610e4e565b5f8111610439576040517f08c379a000000000000000000000000000000000000000000000000000000000815260040161043090611daf565b60405180910390fd5b61048482827f000000000000000000000000000000000000000000000000000000000000000073ffffffffffffffffffffffffffffffffffffffff16610ed59092919063ffffffff16565b5050565b610490610e4e565b6107d08211156104d5576040517f08c379a00000000000000000000000000000000000000000000000000000000081526004016104cc90611e17565b60405180910390fd5b6101f481111561051a576040517f08c379a000000000000000000000000000000000000000000000000000000000815260040161051190611e7f565b60405180910390fd5b81600881905550806009819055507f53482196ef67ac615caab1c3eca2c270acbfdcd75e57c5f24c1b98b10c8e6e048282604051610559929190611e9d565b60405180910390a15050565b60095481565b610573610f54565b5f81116105b5576040517f08c379a00000000000000000000000000000000000000000000000000000000081526004016105ac90611daf565b60405180910390fd5b8060065f3373ffffffffffffffffffffffffffffffffffffffff1673ffffffffffffffffffffffffffffffffffffffff1681526020019081526020015f20541015610635576040517f08c379a000000000000000000000000000000000000000000000000000000000815260040161062c90611f0e565b60405180910390fd5b61063e33610f9a565b610647816111de565b61064f61138a565b50565b60055481565b610660610f54565b61066933610f9a565b5f7f000000000000000000000000000000000000000000000000000000000000000073ffffffffffffffffffffffffffffffffffffffff166370a08231306040518263ffffffff1660e01b81526004016106c39190611d03565b602060405180830381865afa1580156106de573d5f803e3d5ffd5b505050506040513d601f19601f820116820180604052508101906107029190611f40565b90505f6005540361071a57426003819055505061091c565b5f600354426107299190611f98565b90505f6004548261073a9190611fcb565b90505f811115610911577f000000000000000000000000000000000000000000000000000000000000000073ffffffffffffffffffffffffffffffffffffffff166340c10f1930836040518363ffffffff1660e01b815260040161079f92919061200c565b5f604051808303815f87803b1580156107b6575f80fd5b505af11580156107c8573d5f803e3d5ffd5b505050505f612710600854836107de9190611fcb565b6107e89190612060565b90505f81836107f79190611f98565b90505f8211156108be577f000000000000000000000000000000000000000000000000000000000000000073ffffffffffffffffffffffffffffffffffffffff1663a9059cbb7f0000000000000000000000000000000000000000000000000000000000000000846040518363ffffffff1660e01b815260040161087c92919061200c565b6020604051808303815f875af1158015610898573d5f803e3d5ffd5b505050506040513d601f19601f820116820180604052508101906108bc91906120c5565b505b3373ffffffffffffffffffffffffffffffffffffffff167f71bab65ced2e5750775a0613be067df48ef06cf92a496ebf7663ae06609249548284604051610906929190611e9d565b60405180910390a250505b426003819055505050505b61092461138a565b565b60025481565b6007602052805f5260405f205f915090505481565b5f8060065f8473ffffffffffffffffffffffffffffffffffffffff1673ffffffffffffffffffffffffffffffffffffffff1681526020019081526020015f205490505f8103610993575f915050610a70565b5f60025490505f60035490505f60045490505f60055490505f83426109b89190611f98565b90505f83826109c79190611fcb565b90505f8084116109d757866109ff565b8364e8d4a51000836109e99190611fcb565b6109f39190612060565b876109fe91906120f0565b5b905060075f8b73ffffffffffffffffffffffffffffffffffffffff1673ffffffffffffffffffffffffffffffffffffffff1681526020019081526020015f205464e8d4a51000828a610a519190611fcb565b610a5b9190612060565b610a659190611f98565b985050505050505050505b919050565b610a7d610e4e565b610a865f611393565b565b7f000000000000000000000000000000000000000000000000000000000000000081565b60045481565b5f805f9054906101000a900473ffffffffffffffffffffffffffffffffffffffff16905090565b60035481565b7f000000000000000000000000000000000000000000000000000000000000000081565b610b0b610e4e565b5f6005541115610b1f57610b1e5f610f9a565b5b5f600454905081600481905550426003819055507f847d443329ffc31096a4dd9f2e3af502a94bf805cdd3850feaf7d96e7d0654158183604051610b64929190611e9d565b60405180910390a15050565b61271081565b610b7e610f54565b610b8733610f9a565b610b9081611454565b610b9861138a565b50565b60085481565b6006602052805f5260405f205f915090505481565b610bbe610f54565b610bc733610f9a565b5f610bd133610941565b90505f8111610c15576040517f08c379a0000000000000000000000000000000000000000000000000000000008152600401610c0c9061216d565b60405180910390fd5b64e8d4a5100060025460065f3373ffffffffffffffffffffffffffffffffffffffff1673ffffffffffffffffffffffffffffffffffffffff1681526020019081526020015f2054610c669190611fcb565b610c709190612060565b60075f3373ffffffffffffffffffffffffffffffffffffffff1673ffffffffffffffffffffffffffffffffffffffff1681526020019081526020015f20819055507f000000000000000000000000000000000000000000000000000000000000000073ffffffffffffffffffffffffffffffffffffffff1663a9059cbb33836040518363ffffffff1660e01b8152600401610d0c92919061200c565b6020604051808303815f875af1158015610d28573d5f803e3d5ffd5b505050506040513d601f19601f82011682018060405250810190610d4c91906120c5565b503373ffffffffffffffffffffffffffffffffffffffff167fbf355c83b41c216c147f58af7a21c7004b15d6413f1916bdabab14b269a1068982604051610d939190611c11565b60405180910390a250610da461138a565b565b610dae610e4e565b5f73ffffffffffffffffffffffffffffffffffffffff168173ffffffffffffffffffffffffffffffffffffffff1603610e1e575f6040517f1e4fbdf7000000000000000000000000000000000000000000000000000000008152600401610e159190611d03565b60405180910390fd5b610e2781611393565b50565b7f000000000000000000000000000000000000000000000000000000000000000081565b610e56611828565b73ffffffffffffffffffffffffffffffffffffffff16610e74610ab2565b73ffffffffffffffffffffffffffffffffffffffff1614610ed357610e97611828565b6040517f118cdaa7000000000000000000000000000000000000000000000000000000008152600401610eca9190611d03565b60405180910390fd5b565b610f4f838473ffffffffffffffffffffffffffffffffffffffff1663a9059cbb8585604051602401610f0892919061200c565b604051602081830303815290604052915060e01b6020820180517bffffffffffffffffffffffffffffffffffffffffffffffffffffffff838183161783525050505061182f565b505050565b600260015403610f90576040517f3ee5aeb500000000000000000000000000000000000000000000000000000000815260040160405180910390fd5b6002600181905550565b5f60055490505f60035490505f60045490505f8303610fc257426003819055505050506111db565b5f8242610fcf9190611f98565b90505f8103610fe157505050506111db565b5f8282610fee9190611fcb565b90505f8111156110b4577f000000000000000000000000000000000000000000000000000000000000000073ffffffffffffffffffffffffffffffffffffffff166340c10f1930836040518363ffffffff1660e01b815260040161105392919061200c565b5f604051808303815f87803b15801561106a575f80fd5b505af115801561107c573d5f803e3d5ffd5b505050508464e8d4a51000826110929190611fcb565b61109c9190612060565b60025f8282546110ac91906120f0565b925050819055505b426003819055505f73ffffffffffffffffffffffffffffffffffffffff168673ffffffffffffffffffffffffffffffffffffffff161415801561113357505f60065f8873ffffffffffffffffffffffffffffffffffffffff1673ffffffffffffffffffffffffffffffffffffffff1681526020019081526020015f2054115b156111d55764e8d4a5100060025460065f8973ffffffffffffffffffffffffffffffffffffffff1673ffffffffffffffffffffffffffffffffffffffff1681526020019081526020015f20546111899190611fcb565b6111939190612060565b60075f8873ffffffffffffffffffffffffffffffffffffffff1673ffffffffffffffffffffffffffffffffffffffff1681526020019081526020015f20819055505b50505050505b50565b5f8190508160065f3373ffffffffffffffffffffffffffffffffffffffff1673ffffffffffffffffffffffffffffffffffffffff1681526020019081526020015f205f82825461122e9190611f98565b925050819055508160055f8282546112469190611f98565b9250508190555061129833827f000000000000000000000000000000000000000000000000000000000000000073ffffffffffffffffffffffffffffffffffffffff16610ed59092919063ffffffff16565b64e8d4a5100060025460065f3373ffffffffffffffffffffffffffffffffffffffff1673ffffffffffffffffffffffffffffffffffffffff1681526020019081526020015f20546112e99190611fcb565b6112f39190612060565b60075f3373ffffffffffffffffffffffffffffffffffffffff1673ffffffffffffffffffffffffffffffffffffffff1681526020019081526020015f20819055503373ffffffffffffffffffffffffffffffffffffffff167f02f25270a4d87bea75db541cdfe559334a275b4a233520ed6c0a2429667cca9482845f60405161137e939291906121c4565b60405180910390a25050565b60018081905550565b5f805f9054906101000a900473ffffffffffffffffffffffffffffffffffffffff169050815f806101000a81548173ffffffffffffffffffffffffffffffffffffffff021916908373ffffffffffffffffffffffffffffffffffffffff1602179055508173ffffffffffffffffffffffffffffffffffffffff168173ffffffffffffffffffffffffffffffffffffffff167f8be0079c531659141344cd1fd0a4f28419497f9722a3daafe3b4186f6b6457e060405160405180910390a35050565b5f8111611496576040517f08c379a000000000000000000000000000000000000000000000000000000000815260040161148d90611daf565b60405180910390fd5b5f7f000000000000000000000000000000000000000000000000000000000000000073ffffffffffffffffffffffffffffffffffffffff166370a08231306040518263ffffffff1660e01b81526004016114f09190611d03565b602060405180830381865afa15801561150b573d5f803e3d5ffd5b505050506040513d601f19601f8201168201806040525081019061152f9190611f40565b905061157e3330847f000000000000000000000000000000000000000000000000000000000000000073ffffffffffffffffffffffffffffffffffffffff166118c4909392919063ffffffff16565b5f817f000000000000000000000000000000000000000000000000000000000000000073ffffffffffffffffffffffffffffffffffffffff166370a08231306040518263ffffffff1660e01b81526004016115d99190611d03565b602060405180830381865afa1580156115f4573d5f803e3d5ffd5b505050506040513d601f19601f820116820180604052508101906116189190611f40565b6116229190611f98565b90505f612710600954836116369190611fcb565b6116409190612060565b90505f818361164f9190611f98565b90505f8211156116c5576116c47f0000000000000000000000000000000000000000000000000000000000000000837f000000000000000000000000000000000000000000000000000000000000000073ffffffffffffffffffffffffffffffffffffffff16610ed59092919063ffffffff16565b5b5f8190508060065f3373ffffffffffffffffffffffffffffffffffffffff1673ffffffffffffffffffffffffffffffffffffffff1681526020019081526020015f205f82825461171591906120f0565b925050819055508060055f82825461172d91906120f0565b9250508190555064e8d4a5100060025460065f3373ffffffffffffffffffffffffffffffffffffffff1673ffffffffffffffffffffffffffffffffffffffff1681526020019081526020015f20546117859190611fcb565b61178f9190612060565b60075f3373ffffffffffffffffffffffffffffffffffffffff1673ffffffffffffffffffffffffffffffffffffffff1681526020019081526020015f20819055503373ffffffffffffffffffffffffffffffffffffffff167f90890809c654f11d6e72a28fa60149770a0d11ec6c92319d6ceb2bb0a4ea1a158383604051611818929190611e9d565b60405180910390a2505050505050565b5f33905090565b5f611859828473ffffffffffffffffffffffffffffffffffffffff1661194690919063ffffffff16565b90505f81511415801561187d57508080602001905181019061187b91906120c5565b155b156118bf57826040517f5274afe70000000000000000000000000000000000000000000000000000000081526004016118b69190611d03565b60405180910390fd5b505050565b611940848573ffffffffffffffffffffffffffffffffffffffff166323b872dd8686866040516024016118f9939291906121f9565b604051602081830303815290604052915060e01b6020820180517bffffffffffffffffffffffffffffffffffffffffffffffffffffffff838183161783525050505061182f565b50505050565b606061195383835f61195b565b905092915050565b6060814710156119a257306040517fcd7860590000000000000000000000000000000000000000000000000000000081526004016119999190611d03565b60405180910390fd5b5f808573ffffffffffffffffffffffffffffffffffffffff1684866040516119ca919061229a565b5f6040518083038185875af1925050503d805f8114611a04576040519150601f19603f3d011682016040523d82523d5f602084013e611a09565b606091505b5091509150611a19868383611a24565b925050509392505050565b606082611a3957611a3482611ab1565b611aa9565b5f8251148015611a5f57505f8473ffffffffffffffffffffffffffffffffffffffff163b145b15611aa157836040517f9996b315000000000000000000000000000000000000000000000000000000008152600401611a989190611d03565b60405180910390fd5b819050611aaa565b5b9392505050565b5f81511115611ac35780518082602001fd5b6040517f1425ea4200000000000000000000000000000000000000000000000000000000815260040160405180910390fd5b5f80fd5b5f73ffffffffffffffffffffffffffffffffffffffff82169050919050565b5f611b2282611af9565b9050919050565b611b3281611b18565b8114611b3c575f80fd5b50565b5f81359050611b4d81611b29565b92915050565b5f819050919050565b611b6581611b53565b8114611b6f575f80fd5b50565b5f81359050611b8081611b5c565b92915050565b5f8060408385031215611b9c57611b9b611af5565b5b5f611ba985828601611b3f565b9250506020611bba85828601611b72565b9150509250929050565b5f8060408385031215611bda57611bd9611af5565b5b5f611be785828601611b72565b9250506020611bf885828601611b72565b9150509250929050565b611c0b81611b53565b82525050565b5f602082019050611c245f830184611c02565b92915050565b5f60208284031215611c3f57611c3e611af5565b5b5f611c4c84828501611b72565b91505092915050565b5f60208284031215611c6a57611c69611af5565b5b5f611c7784828501611b3f565b91505092915050565b5f819050919050565b5f611ca3611c9e611c9984611af9565b611c80565b611af9565b9050919050565b5f611cb482611c89565b9050919050565b5f611cc582611caa565b9050919050565b611cd581611cbb565b82525050565b5f602082019050611cee5f830184611ccc565b92915050565b611cfd81611b18565b82525050565b5f602082019050611d165f830184611cf4565b92915050565b5f611d2682611caa565b9050919050565b611d3681611d1c565b82525050565b5f602082019050611d4f5f830184611d2d565b92915050565b5f82825260208201905092915050565b7f4752415a453a207a65726f20616d6f756e7400000000000000000000000000005f82015250565b5f611d99601283611d55565b9150611da482611d65565b602082019050919050565b5f6020820190508181035f830152611dc681611d8d565b9050919050565b7f4752415a453a207065726620666565206d6178203230250000000000000000005f82015250565b5f611e01601783611d55565b9150611e0c82611dcd565b602082019050919050565b5f6020820190508181035f830152611e2e81611df5565b9050919050565b7f4752415a453a2077647720666565206d617820352500000000000000000000005f82015250565b5f611e69601583611d55565b9150611e7482611e35565b602082019050919050565b5f6020820190508181035f830152611e9681611e5d565b9050919050565b5f604082019050611eb05f830185611c02565b611ebd6020830184611c02565b9392505050565b7f4752415a453a20696e73756666696369656e74207368617265730000000000005f82015250565b5f611ef8601a83611d55565b9150611f0382611ec4565b602082019050919050565b5f6020820190508181035f830152611f2581611eec565b9050919050565b5f81519050611f3a81611b5c565b92915050565b5f60208284031215611f5557611f54611af5565b5b5f611f6284828501611f2c565b91505092915050565b7f4e487b71000000000000000000000000000000000000000000000000000000005f52601160045260245ffd5b5f611fa282611b53565b9150611fad83611b53565b9250828203905081811115611fc557611fc4611f6b565b5b92915050565b5f611fd582611b53565b9150611fe083611b53565b9250828202611fee81611b53565b9150828204841483151761200557612004611f6b565b5b5092915050565b5f60408201905061201f5f830185611cf4565b61202c6020830184611c02565b9392505050565b7f4e487b71000000000000000000000000000000000000000000000000000000005f52601260045260245ffd5b5f61206a82611b53565b915061207583611b53565b92508261208557612084612033565b5b828204905092915050565b5f8115159050919050565b6120a481612090565b81146120ae575f80fd5b50565b5f815190506120bf8161209b565b92915050565b5f602082840312156120da576120d9611af5565b5b5f6120e7848285016120b1565b91505092915050565b5f6120fa82611b53565b915061210583611b53565b925082820190508082111561211d5761211c611f6b565b5b92915050565b7f4752415a453a206e6f7468696e6720746f20636c61696d0000000000000000005f82015250565b5f612157601783611d55565b915061216282612123565b602082019050919050565b5f6020820190508181035f8301526121848161214b565b9050919050565b5f819050919050565b5f6121ae6121a96121a48461218b565b611c80565b611b53565b9050919050565b6121be81612194565b82525050565b5f6060820190506121d75f830186611c02565b6121e46020830185611c02565b6121f160408301846121b5565b949350505050565b5f60608201905061220c5f830186611cf4565b6122196020830185611cf4565b6122266040830184611c02565b949350505050565b5f81519050919050565b5f81905092915050565b5f5b8381101561225f578082015181840152602081019050612244565b5f8484015250505050565b5f6122748261222e565b61227e8185612238565b935061228e818560208601612242565b80840191505092915050565b5f6122a5828461226a565b91508190509291505056fea26469706673582212208badd93bb8f95c5f60fd4bba25a1347fad168649ea1d1101b17fcb028a23b1cf64736f6c63430008140033","linkReferences":{}},"methodIdentifiers":{"FEE_DIVISOR()":"9e93ad8e","accFLETCHPerShare()":"4d4dded6","claimFLETCH()":"da4718e3","deposit(uint256)":"b6b55f25","emergencyWithdrawLPs(address,uint256)":"0a90c6fd","fletch()":"9e25aff2","getPendingFLETCH(address)":"669bdce4","harvest()":"4641257d","lastRewardTime()":"9231cf74","owner()":"8da5cb5b","performanceFeeNumerator()":"b74a68d7","renounceOwnership()":"715018a6","rewardDebt(address)":"5873eb9b","rewardRate()":"7b0a47ee","setFees(uint256,uint256)":"0b78f9c0","setRewardRate(uint256)":"9e447fc6","shares(address)":"ce7c2ac2","stakingToken()":"72f702f3","totalShares()":"3a98ef39","transferOwnership(address)":"f2fde38b","withdraw(uint256)":"2e1a7d4d","withdrawalFeeNumerator()":"1823a05c","yew()":"f706d57d"},"id":36}