{"abi":[{"type":"constructor","inputs":[{"name":"initialOwner","type":"address","internalType":"address"}],"stateMutability":"nonpayable"},{"type":"function","name":"MAX_SUPPLY","inputs":[],"outputs":[{"name":"","type":"uint256","internalType":"uint256"}],"stateMutability":"view"},{"type":"function","name":"allowance","inputs":[{"name":"owner","type":"address","internalType":"address"},{"name":"spender","type":"address","internalType":"address"}],"outputs":[{"name":"","type":"uint256","internalType":"uint256"}],"stateMutability":"view"},{"type":"function","name":"approve","inputs":[{"name":"spender","type":"address","internalType":"address"},{"name":"value","type":"uint256","internalType":"uint256"}],"outputs":[{"name":"","type":"bool","internalType":"bool"}],"stateMutability":"nonpayable"},{"type":"function","name":"balanceOf","inputs":[{"name":"account","type":"address","internalType":"address"}],"outputs":[{"name":"","type":"uint256","internalType":"uint256"}],"stateMutability":"view"},{"type":"function","name":"decimals","inputs":[],"outputs":[{"name":"","type":"uint8","internalType":"uint8"}],"stateMutability":"view"},{"type":"function","name":"mint","inputs":[{"name":"to","type":"address","internalType":"address"},{"name":"amount","type":"uint256","internalType":"uint256"}],"outputs":[],"stateMutability":"nonpayable"},{"type":"function","name":"name","inputs":[],"outputs":[{"name":"","type":"string","internalType":"string"}],"stateMutability":"view"},{"type":"function","name":"owner","inputs":[],"outputs":[{"name":"","type":"address","internalType":"address"}],"stateMutability":"view"},{"type":"function","name":"renounceOwnership","inputs":[],"outputs":[],"stateMutability":"nonpayable"},{"type":"function","name":"sweepETH","inputs":[{"name":"to","type":"address","internalType":"address payable"}],"outputs":[],"stateMutability":"nonpayable"},{"type":"function","name":"sweepToken","inputs":[{"name":"token","type":"address","internalType":"contract IERC20"},{"name":"to","type":"address","internalType":"address"}],"outputs":[],"stateMutability":"nonpayable"},{"type":"function","name":"symbol","inputs":[],"outputs":[{"name":"","type":"string","internalType":"string"}],"stateMutability":"view"},{"type":"function","name":"totalSupply","inputs":[],"outputs":[{"name":"","type":"uint256","internalType":"uint256"}],"stateMutability":"view"},{"type":"function","name":"transfer","inputs":[{"name":"to","type":"address","internalType":"address"},{"name":"value","type":"uint256","internalType":"uint256"}],"outputs":[{"name":"","type":"bool","internalType":"bool"}],"stateMutability":"nonpayable"},{"type":"function","name":"transferFrom","inputs":[{"name":"from","type":"address","internalType":"address"},{"name":"to","type":"address","internalType":"address"},{"name":"value","type":"uint256","internalType":"uint256"}],"outputs":[{"name":"","type":"bool","internalType":"bool"}],"stateMutability":"nonpayable"},{"type":"function","name":"transferOwnership","inputs":[{"name":"newOwner","type":"address","internalType":"address"}],"outputs":[],"stateMutability":"nonpayable"},{"type":"event","name":"Approval","inputs":[{"name":"owner","type":"address","indexed":true,"internalType":"address"},{"name":"spender","type":"address","indexed":true,"internalType":"address"},{"name":"value","type":"uint256","indexed":false,"internalType":"uint256"}],"anonymous":false},{"type":"event","name":"OwnershipTransferred","inputs":[{"name":"previousOwner","type":"address","indexed":true,"internalType":"address"},{"name":"newOwner","type":"address","indexed":true,"internalType":"address"}],"anonymous":false},{"type":"event","name":"SweepToken","inputs":[{"name":"token","type":"address","indexed":true,"internalType":"address"},{"name":"amount","type":"uint256","indexed":false,"internalType":"uint256"}],"anonymous":false},{"type":"event","name":"Transfer","inputs":[{"name":"from","type":"address","indexed":true,"internalType":"address"},{"name":"to","type":"address","indexed":true,"internalType":"address"},{"name":"value","type":"uint256","indexed":false,"internalType":"uint256"}],"anonymous":false},{"type":"error","name":"AddressEmptyCode","inputs":[{"name":"target","type":"address","internalType":"address"}]},{"type":"error","name":"AddressInsufficientBalance","inputs":[{"name":"account","type":"address","internalType":"address"}]},{"type":"error","name":"ERC20InsufficientAllowance","inputs":[{"name":"spender","type":"address","internalType":"address"},{"name":"allowance","type":"uint256","internalType":"uint256"},{"name":"needed","type":"uint256","internalType":"uint256"}]},{"type":"error","name":"ERC20InsufficientBalance","inputs":[{"name":"sender","type":"address","internalType":"address"},{"name":"balance","type":"uint256","internalType":"uint256"},{"name":"needed","type":"uint256","internalType":"uint256"}]},{"type":"error","name":"ERC20InvalidApprover","inputs":[{"name":"approver","type":"address","internalType":"address"}]},{"type":"error","name":"ERC20InvalidReceiver","inputs":[{"name":"receiver","type":"address","internalType":"address"}]},{"type":"error","name":"ERC20InvalidSender","inputs":[{"name":"sender","type":"address","internalType":"address"}]},{"type":"error","name":"ERC20InvalidSpender","inputs":[{"name":"spender","type":"address","internalType":"address"}]},{"type":"error","name":"FailedInnerCall","inputs":[]},{"type":"error","name":"OwnableInvalidOwner","inputs":[{"name":"owner","type":"address","internalType":"address"}]},{"type":"error","name":"OwnableUnauthorizedAccount","inputs":[{"name":"account","type":"address","internalType":"address"}]},{"type":"error","name":"SafeERC20FailedOperation","inputs":[{"name":"token","type":"address","internalType":"address"}]}],"bytecode":{"object":"0x608034620003f657601f1990601f6001600160401b0362000fed3881900383810186168501838111868210176200030357859282916040528339602094859181010312620003f657516001600160a01b038082169590929091869003620003f6576200006a620003fa565b9360128552712ca2ab902a3932b0b9bab93c902a37b5b2b760711b8686015262000093620003fa565b946003918287526259455760e81b888801528151848111620003035783546001938482811c92168015620003eb575b8b831014620003d757818484931162000384575b508a9084831160011462000323575f9262000317575b50505f1982861b1c191690831b1783555b8651938411620003035760049687548381811c91168015620002f8575b8a821014620002e5578281116200029d575b50889185116001146200023857849550908492915f956200022c575b50501b925f19911b1c19161782555b83156200021557600580546001600160a01b0319811686179091558491167f8be0079c531659141344cd1fd0a4f28419497f9722a3daafe3b4186f6b6457e05f80a36002546a084595161401484a000000918282018092116200020257506002555f838152808352604080822080548401905551918252917fddf252ad1be2c89b69c2b068fc378daa952ba7f163c4a11628f55a4df523b3ef91a3604051610bd290816200041b8239f35b601190634e487b7160e01b5f525260245ffd5b604051631e4fbdf760e01b81525f81840152602490fd5b015193505f8062000148565b929194841692875f5284895f20945f5b8b898383106200028557505050106200026b575b50505050811b01825562000157565b01519060f8845f19921b161c191690555f8080806200025c565b86860151895590970196948501948893500162000248565b885f52895f208380880160051c8201928c8910620002db575b0160051c019084905b828110620002cf5750506200012c565b5f8155018490620002bf565b92508192620002b6565b602289634e487b7160e01b5f525260245ffd5b90607f16906200011a565b634e487b7160e01b5f52604160045260245ffd5b015190505f80620000ec565b908886941691875f528c5f20928d5f905b8282106200036c575050841162000354575b505050811b018355620000fd565b01515f1983881b60f8161c191690555f808062000346565b83850151865589979095019493840193018e62000334565b909150855f528a5f208480850160051c8201928d8610620003cd575b918791869594930160051c01915b828110620003be575050620000d6565b5f8155859450879101620003ae565b92508192620003a0565b634e487b7160e01b5f52602260045260245ffd5b91607f1691620000c2565b5f80fd5b60408051919082016001600160401b03811183821017620003035760405256fe60806040818152600480361015610014575f80fd5b5f92833560e01c90816306fdde031461084f57508063095ea7b3146107a6578381631163b2b0146107415750806318160ddd1461072257806323b872dd14610630578063258836fe1461044e578063313ce5671461043257806332cb6b0c1461040c57806340c10f19146103a657806370a082311461036f578063715018a61461030f5780638da5cb5b146102e657806395d89b41146101e2578063a9059cbb146101b1578063dd62ed3e146101645763f2fde38b146100d2575f80fd5b34610160576020366003190112610160576100eb610988565b906100f46109b8565b6001600160a01b0391821692831561014a575050600554826bffffffffffffffffffffffff60a01b821617600555167f8be0079c531659141344cd1fd0a4f28419497f9722a3daafe3b4186f6b6457e08380a380f35b51631e4fbdf760e01b8152908101849052602490fd5b8280fd5b5050346101ad57806003193601126101ad5780602092610182610988565b61018a6109a2565b6001600160a01b0391821683526001865283832091168252845220549051908152f35b5080fd5b5050346101ad57806003193601126101ad576020906101db6101d1610988565b6024359033610a1a565b5160018152f35b509190346101ad57816003193601126101ad57805191809380549160019083821c928285169485156102dc575b60209586861081146102c9578589529081156102a5575060011461024d575b610249878761023f828c03836109e4565b5191829182610941565b0390f35b81529295507f8a35acfbc15ff81a39ae7d344fd709f28e8600b4aa8c65c6b64bfe7fe36bd19b5b82841061029257505050826102499461023f92820101945f8061022e565b8054868501880152928601928101610274565b60ff19168887015250505050151560051b830101925061023f826102495f8061022e565b634e487b7160e01b845260228352602484fd5b93607f169361020f565b5050346101ad57816003193601126101ad5760055490516001600160a01b039091168152602090f35b833461036c578060031936011261036c576103286109b8565b600580546001600160a01b0319811690915581906001600160a01b03167f8be0079c531659141344cd1fd0a4f28419497f9722a3daafe3b4186f6b6457e08280a380f35b80fd5b5050346101ad5760203660031901126101ad5760209181906001600160a01b03610397610988565b16815280845220549051908152f35b50823461036c578260031936011261036c575060206064926103c6610988565b506103cf6109b8565b5162461bcd60e51b815291820152601c60248201527f5945573a206e6f206d696e74696e67206166746572206c61756e6368000000006044820152fd5b5050346101ad57816003193601126101ad57602090516a084595161401484a0000008152f35b5050346101ad57816003193601126101ad576020905160128152f35b508290346101ad57826003193601126101ad5780356001600160a01b03818116929183900361062c5761047f6109a2565b916104886109b8565b8551916370a0823160e01b835230828401526020938484602481895afa9384156106225787946105ef575b506104bf841515610af5565b8751918583019163a9059cbb60e01b835216602483015283604483015260448252608082019167ffffffffffffffff92818110848211176105dc57895251879182919082895af13d156105cf573d9182116105bc579061053e9188519161052f87601f19601f84011601846109e4565b82523d888784013e5b86610b39565b8051848115159182610597575b5050905061058057507ff4a44a7f605c4971a27bcecb448108e6328b7fad34fab5bff4f69377294b826d92939451908152a280f35b8551635274afe760e01b8152908101849052602490fd5b83809293500103126105b8578301518015908115036105b85780848961054b565b8580fd5b634e487b7160e01b875260418352602487fd5b61053e9150606090610538565b634e487b7160e01b895260418552602489fd5b9093508481813d831161061b575b61060781836109e4565b81010312610617575192886104b3565b8680fd5b503d6105fd565b88513d89823e3d90fd5b8380fd5b50823461036c57606036600319011261036c5761064b610988565b6106536109a2565b916044359360018060a01b038316808352600160205286832033845260205286832054915f19830361068e575b6020886101db898989610a1a565b8683106106f65781156106df5733156106c8575082526001602090815286832033845281529186902090859003905582906101db87610680565b8751634a1406b160e11b8152908101849052602490fd5b875163e602df0560e01b8152908101849052602490fd5b8751637dc7a0d960e11b8152339181019182526020820193909352604081018790528291506060010390fd5b5050346101ad57816003193601126101ad576020906002549051908152f35b919050346101ad5760203660031901126101ad57356001600160a01b038116908190036101ad57818080926107746109b8565b479081156107828115610af5565b839061079d575bf115610793575080f35b51903d90823e3d90fd5b506108fc610789565b50346101605781600319360112610160576107bf610988565b602435903315610838576001600160a01b031691821561082157508083602095338152600187528181208582528752205582519081527f8c5be1e5ebec7d5bd14f71427d1e84f3dd0314c0f7b2291e5b200ac8c7c3b925843392a35160018152f35b8351634a1406b160e11b8152908101859052602490fd5b835163e602df0560e01b8152808401869052602490fd5b929190503461062c578360031936011261062c57600354600181811c9186908281168015610937575b6020958686108214610924575084885290811561090257506001146108a9575b610249868661023f828b03836109e4565b929550600383527fc2575a0e9e593c00f959f8c92f12db2869c3395a3b0502d05e2516446f71f85b5b8284106108ef57505050826102499461023f92820101945f610898565b80548685018801529286019281016108d2565b60ff191687860152505050151560051b830101925061023f826102495f610898565b634e487b7160e01b845260229052602483fd5b93607f1693610878565b602080825282518183018190529093925f5b82811061097457505060409293505f838284010152601f8019910116010190565b818101860151848201604001528501610953565b600435906001600160a01b038216820361099e57565b5f80fd5b602435906001600160a01b038216820361099e57565b6005546001600160a01b031633036109cc57565b60405163118cdaa760e01b8152336004820152602490fd5b90601f8019910116810190811067ffffffffffffffff821117610a0657604052565b634e487b7160e01b5f52604160045260245ffd5b916001600160a01b03808416928315610add5716928315610ac5575f9083825281602052604082205490838210610a93575091604082827fddf252ad1be2c89b69c2b068fc378daa952ba7f163c4a11628f55a4df523b3ef958760209652828652038282205586815220818154019055604051908152a3565b60405163391434e360e21b81526001600160a01b03919091166004820152602481019190915260448101839052606490fd5b60405163ec442f0560e01b81525f6004820152602490fd5b604051634b637e8f60e11b81525f6004820152602490fd5b15610afc57565b60405162461bcd60e51b815260206004820152601560248201527405945573a206e6f7468696e6720746f20737765657605c1b6044820152606490fd5b90610b605750805115610b4e57805190602001fd5b604051630a12f52160e11b8152600490fd5b81511580610b93575b610b71575090565b604051639996b31560e01b81526001600160a01b039091166004820152602490fd5b50803b15610b6956fea2646970667358221220dc696faa16df4f84a388fb6fd05e1a1858299b7a6055ab9de13b31afcd266ab664736f6c63430008140033","linkReferences":{}},"methodIdentifiers":{"MAX_SUPPLY()":"32cb6b0c","allowance(address,address)":"dd62ed3e","approve(address,uint256)":"095ea7b3","balanceOf(address)":"70a08231","decimals()":"313ce567","mint(address,uint256)":"40c10f19","name()":"06fdde03","owner()":"8da5cb5b","renounceOwnership()":"715018a6","sweepETH(address)":"1163b2b0","sweepToken(address,address)":"258836fe","symbol()":"95d89b41","totalSupply()":"18160ddd","transfer(address,uint256)":"a9059cbb","transferFrom(address,address,uint256)":"23b872dd","transferOwnership(address)":"f2fde38b"},"id":38}