{"abi":[{"type":"constructor","inputs":[{"name":"initialOwner","type":"address","internalType":"address"}],"stateMutability":"nonpayable"},{"type":"receive","stateMutability":"payable"},{"type":"function","name":"owner","inputs":[],"outputs":[{"name":"","type":"address","internalType":"address"}],"stateMutability":"view"},{"type":"function","name":"renounceOwnership","inputs":[],"outputs":[],"stateMutability":"nonpayable"},{"type":"function","name":"reportProfit","inputs":[{"name":"profit","type":"uint256","internalType":"uint256"},{"name":"source","type":"string","internalType":"string"}],"outputs":[],"stateMutability":"nonpayable"},{"type":"function","name":"sweepETH","inputs":[{"name":"to","type":"address","internalType":"address payable"}],"outputs":[],"stateMutability":"nonpayable"},{"type":"function","name":"sweepToken","inputs":[{"name":"token","type":"address","internalType":"contract IERC20"},{"name":"to","type":"address","internalType":"address"}],"outputs":[],"stateMutability":"nonpayable"},{"type":"function","name":"transferOwnership","inputs":[{"name":"newOwner","type":"address","internalType":"address"}],"outputs":[],"stateMutability":"nonpayable"},{"type":"event","name":"OwnershipTransferred","inputs":[{"name":"previousOwner","type":"address","indexed":true,"internalType":"address"},{"name":"newOwner","type":"address","indexed":true,"internalType":"address"}],"anonymous":false},{"type":"event","name":"ProfitReported","inputs":[{"name":"profit","type":"uint256","indexed":false,"internalType":"uint256"},{"name":"source","type":"string","indexed":false,"internalType":"string"},{"name":"reporter","type":"address","indexed":false,"internalType":"address"}],"anonymous":false},{"type":"event","name":"ReceivedETH","inputs":[{"name":"from","type":"address","indexed":true,"internalType":"address"},{"name":"amount","type":"uint256","indexed":false,"internalType":"uint256"}],"anonymous":false},{"type":"event","name":"SweepToken","inputs":[{"name":"token","type":"address","indexed":true,"internalType":"address"},{"name":"amount","type":"uint256","indexed":false,"internalType":"uint256"}],"anonymous":false},{"type":"error","name":"AddressEmptyCode","inputs":[{"name":"target","type":"address","internalType":"address"}]},{"type":"error","name":"AddressInsufficientBalance","inputs":[{"name":"account","type":"address","internalType":"address"}]},{"type":"error","name":"FailedInnerCall","inputs":[]},{"type":"error","name":"OwnableInvalidOwner","inputs":[{"name":"owner","type":"address","internalType":"address"}]},{"type":"error","name":"OwnableUnauthorizedAccount","inputs":[{"name":"account","type":"address","internalType":"address"}]},{"type":"error","name":"SafeERC20FailedOperation","inputs":[{"name":"token","type":"address","internalType":"address"}]}],"bytecode":{"object":"0x6080346100b957601f6106a438819003918201601f19168301916001600160401b038311848410176100bd578084926020946040528339810103126100b957516001600160a01b0390818116908190036100b95780156100a1575f80546001600160a01b03198116831782556040519316907f8be0079c531659141344cd1fd0a4f28419497f9722a3daafe3b4186f6b6457e09080a36105d290816100d28239f35b604051631e4fbdf760e01b81525f6004820152602490fd5b5f80fd5b634e487b7160e01b5f52604160045260245ffdfe604060808152600480361015610047575b50361561001b575f80fd5b513481527f4103257eaac983ca79a70d28f90dfc4fa16b619bb0c17ee7cab0d4034c27962460203392a2005b5f90813560e01c80631163b2b01461042e578063258836fe14610257578063715018a6146101fa578063762581b6146101525780638da5cb5b146101265763f2fde38b146100955750610010565b8234610122576020366003190112610122576001600160a01b0382358181169391929084900361011e576100c7610494565b831561010857505082546001600160a01b0319811683178455167f8be0079c531659141344cd1fd0a4f28419497f9722a3daafe3b4186f6b6457e08380a380f35b51631e4fbdf760e01b8152908101849052602490fd5b8480fd5b8280fd5b82843461014e578160031936011261014e57905490516001600160a01b039091168152602090f35b5080fd5b5082346101225780600319360112610122576024359067ffffffffffffffff9283831161011e573660238401121561011e578281013593841161011e57366024858501011161011e5783827fd20dd41b90a574265cd2756f02d32cefdbf4031f080ebe04b31ae40dd50ff3f99560246080955196879535865260606020870152826060870152018585013782820184018790523390830152601f01601f19168101030190a180f35b8234610254578060031936011261025457610213610494565b80546001600160a01b03198116825581906001600160a01b03167f8be0079c531659141344cd1fd0a4f28419497f9722a3daafe3b4186f6b6457e08280a380f35b80fd5b503461014e578260031936011261014e576001600160a01b038135818116929083900361042a57602494853592831680930361011e57610295610494565b8051916370a0823160e01b8352308184015260209384848981895afa9384156104205787946103f1575b506102cb8415156104f5565b868351918683019063a9059cbb60e01b82528a84015285604484015260448352608083019267ffffffffffffffff93818110858211176103df578652518291828a5af13d156103d2573d9182116103c057906103469184519161033788601f19601f84011601846104bf565b82523d898884013e5b87610539565b805185811515918261039b575b505090506103875750519081527ff4a44a7f605c4971a27bcecb448108e6328b7fad34fab5bff4f69377294b826d9190a280f35b8487925191635274afe760e01b8352820152fd5b83809293500103126103bc578401518015908115036103bc5780855f610353565b8680fd5b634e487b7160e01b8852604183528888fd5b6103469150606090610340565b634e487b7160e01b8452604186528b84fd5b9093508481813d8311610419575b61040981836104bf565b810103126103bc5751925f6102bf565b503d6103ff565b83513d89823e3d90fd5b8380fd5b508183913461014e57602036600319011261014e57356001600160a01b0381169081900361014e5781808092610462610494565b4790811561047081156104f5565b839061048b575bf115610481575080f35b51903d90823e3d90fd5b506108fc610477565b5f546001600160a01b031633036104a757565b60405163118cdaa760e01b8152336004820152602490fd5b90601f8019910116810190811067ffffffffffffffff8211176104e157604052565b634e487b7160e01b5f52604160045260245ffd5b156104fc57565b60405162461bcd60e51b815260206004820152601560248201527405945573a206e6f7468696e6720746f20737765657605c1b6044820152606490fd5b90610560575080511561054e57805190602001fd5b604051630a12f52160e11b8152600490fd5b81511580610593575b610571575090565b604051639996b31560e01b81526001600160a01b039091166004820152602490fd5b50803b1561056956fea26469706673582212206e5ad07c26704308603b4ad5b9461548dc439311a4d3bec915b1a4af27f66cf664736f6c63430008140033","linkReferences":{}},"methodIdentifiers":{"owner()":"8da5cb5b","renounceOwnership()":"715018a6","reportProfit(uint256,string)":"762581b6","sweepETH(address)":"1163b2b0","sweepToken(address,address)":"258836fe","transferOwnership(address)":"f2fde38b"},"id":38}