{"abi":[{"type":"constructor","inputs":[{"name":"initialOwner","type":"address","internalType":"address"}],"stateMutability":"nonpayable"},{"type":"receive","stateMutability":"payable"},{"type":"function","name":"owner","inputs":[],"outputs":[{"name":"","type":"address","internalType":"address"}],"stateMutability":"view"},{"type":"function","name":"renounceOwnership","inputs":[],"outputs":[],"stateMutability":"nonpayable"},{"type":"function","name":"reportProfit","inputs":[{"name":"profit","type":"uint256","internalType":"uint256"},{"name":"source","type":"string","internalType":"string"}],"outputs":[],"stateMutability":"nonpayable"},{"type":"function","name":"sweepETH","inputs":[{"name":"to","type":"address","internalType":"address payable"}],"outputs":[],"stateMutability":"nonpayable"},{"type":"function","name":"sweepToken","inputs":[{"name":"token","type":"address","internalType":"contract IERC20"},{"name":"to","type":"address","internalType":"address"}],"outputs":[],"stateMutability":"nonpayable"},{"type":"function","name":"transferOwnership","inputs":[{"name":"newOwner","type":"address","internalType":"address"}],"outputs":[],"stateMutability":"nonpayable"},{"type":"event","name":"OwnershipTransferred","inputs":[{"name":"previousOwner","type":"address","indexed":true,"internalType":"address"},{"name":"newOwner","type":"address","indexed":true,"internalType":"address"}],"anonymous":false},{"type":"event","name":"ProfitReported","inputs":[{"name":"profit","type":"uint256","indexed":false,"internalType":"uint256"},{"name":"source","type":"string","indexed":false,"internalType":"string"},{"name":"reporter","type":"address","indexed":false,"internalType":"address"}],"anonymous":false},{"type":"event","name":"ReceivedETH","inputs":[{"name":"from","type":"address","indexed":true,"internalType":"address"},{"name":"amount","type":"uint256","indexed":false,"internalType":"uint256"}],"anonymous":false},{"type":"event","name":"SweepToken","inputs":[{"name":"token","type":"address","indexed":true,"internalType":"address"},{"name":"amount","type":"uint256","indexed":false,"internalType":"uint256"}],"anonymous":false},{"type":"error","name":"AddressEmptyCode","inputs":[{"name":"target","type":"address","internalType":"address"}]},{"type":"error","name":"AddressInsufficientBalance","inputs":[{"name":"account","type":"address","internalType":"address"}]},{"type":"error","name":"FailedInnerCall","inputs":[]},{"type":"error","name":"OwnableInvalidOwner","inputs":[{"name":"owner","type":"address","internalType":"address"}]},{"type":"error","name":"OwnableUnauthorizedAccount","inputs":[{"name":"account","type":"address","internalType":"address"}]},{"type":"error","name":"SafeERC20FailedOperation","inputs":[{"name":"token","type":"address","internalType":"address"}]}],"bytecode":{"object":"0x608060405234801562000010575f80fd5b5060405162000ffa38038062000ffa8339818101604052810190620000369190620001e9565b805f73ffffffffffffffffffffffffffffffffffffffff168173ffffffffffffffffffffffffffffffffffffffff1603620000aa575f6040517f1e4fbdf7000000000000000000000000000000000000000000000000000000008152600401620000a191906200022a565b60405180910390fd5b620000bb81620000c360201b60201c565b505062000245565b5f805f9054906101000a900473ffffffffffffffffffffffffffffffffffffffff169050815f806101000a81548173ffffffffffffffffffffffffffffffffffffffff021916908373ffffffffffffffffffffffffffffffffffffffff1602179055508173ffffffffffffffffffffffffffffffffffffffff168173ffffffffffffffffffffffffffffffffffffffff167f8be0079c531659141344cd1fd0a4f28419497f9722a3daafe3b4186f6b6457e060405160405180910390a35050565b5f80fd5b5f73ffffffffffffffffffffffffffffffffffffffff82169050919050565b5f620001b38262000188565b9050919050565b620001c581620001a7565b8114620001d0575f80fd5b50565b5f81519050620001e381620001ba565b92915050565b5f6020828403121562000201576200020062000184565b5b5f6200021084828501620001d3565b91505092915050565b6200022481620001a7565b82525050565b5f6020820190506200023f5f83018462000219565b92915050565b610da780620002535f395ff3fe608060405260043610610058575f3560e01c80631163b2b0146100b1578063258836fe146100d9578063715018a614610101578063762581b6146101175780638da5cb5b1461013f578063f2fde38b14610169576100ad565b366100ad573373ffffffffffffffffffffffffffffffffffffffff167f4103257eaac983ca79a70d28f90dfc4fa16b619bb0c17ee7cab0d4034c279624346040516100a39190610894565b60405180910390a2005b5f80fd5b3480156100bc575f80fd5b506100d760048036038101906100d2919061090f565b610191565b005b3480156100e4575f80fd5b506100ff60048036038101906100fa91906109b0565b610227565b005b34801561010c575f80fd5b5061011561036a565b005b348015610122575f80fd5b5061013d60048036038101906101389190610a79565b61037d565b005b34801561014a575f80fd5b506101536103bf565b6040516101609190610ae5565b60405180910390f35b348015610174575f80fd5b5061018f600480360381019061018a9190610afe565b6103e6565b005b61019961046a565b5f4790505f81116101df576040517f08c379a00000000000000000000000000000000000000000000000000000000081526004016101d690610b83565b60405180910390fd5b8173ffffffffffffffffffffffffffffffffffffffff166108fc8290811502906040515f60405180830381858888f19350505050158015610222573d5f803e3d5ffd5b505050565b61022f61046a565b5f8273ffffffffffffffffffffffffffffffffffffffff166370a08231306040518263ffffffff1660e01b81526004016102699190610ae5565b602060405180830381865afa158015610284573d5f803e3d5ffd5b505050506040513d601f19601f820116820180604052508101906102a89190610bb5565b90505f81116102ec576040517f08c379a00000000000000000000000000000000000000000000000000000000081526004016102e390610b83565b60405180910390fd5b61031782828573ffffffffffffffffffffffffffffffffffffffff166104f19092919063ffffffff16565b8273ffffffffffffffffffffffffffffffffffffffff167ff4a44a7f605c4971a27bcecb448108e6328b7fad34fab5bff4f69377294b826d8260405161035d9190610894565b60405180910390a2505050565b61037261046a565b61037b5f610570565b565b7fd20dd41b90a574265cd2756f02d32cefdbf4031f080ebe04b31ae40dd50ff3f9838383336040516103b29493929190610c2a565b60405180910390a1505050565b5f805f9054906101000a900473ffffffffffffffffffffffffffffffffffffffff16905090565b6103ee61046a565b5f73ffffffffffffffffffffffffffffffffffffffff168173ffffffffffffffffffffffffffffffffffffffff160361045e575f6040517f1e4fbdf70000000000000000000000000000000000000000000000000000000081526004016104559190610ae5565b60405180910390fd5b61046781610570565b50565b610472610631565b73ffffffffffffffffffffffffffffffffffffffff166104906103bf565b73ffffffffffffffffffffffffffffffffffffffff16146104ef576104b3610631565b6040517f118cdaa70000000000000000000000000000000000000000000000000000000081526004016104e69190610ae5565b60405180910390fd5b565b61056b838473ffffffffffffffffffffffffffffffffffffffff1663a9059cbb8585604051602401610524929190610c68565b604051602081830303815290604052915060e01b6020820180517bffffffffffffffffffffffffffffffffffffffffffffffffffffffff8381831617835250505050610638565b505050565b5f805f9054906101000a900473ffffffffffffffffffffffffffffffffffffffff169050815f806101000a81548173ffffffffffffffffffffffffffffffffffffffff021916908373ffffffffffffffffffffffffffffffffffffffff1602179055508173ffffffffffffffffffffffffffffffffffffffff168173ffffffffffffffffffffffffffffffffffffffff167f8be0079c531659141344cd1fd0a4f28419497f9722a3daafe3b4186f6b6457e060405160405180910390a35050565b5f33905090565b5f610662828473ffffffffffffffffffffffffffffffffffffffff166106cd90919063ffffffff16565b90505f8151141580156106865750808060200190518101906106849190610cc4565b155b156106c857826040517f5274afe70000000000000000000000000000000000000000000000000000000081526004016106bf9190610ae5565b60405180910390fd5b505050565b60606106da83835f6106e2565b905092915050565b60608147101561072957306040517fcd7860590000000000000000000000000000000000000000000000000000000081526004016107209190610ae5565b60405180910390fd5b5f808573ffffffffffffffffffffffffffffffffffffffff1684866040516107519190610d5b565b5f6040518083038185875af1925050503d805f811461078b576040519150601f19603f3d011682016040523d82523d5f602084013e610790565b606091505b50915091506107a08683836107ab565b925050509392505050565b6060826107c0576107bb82610838565b610830565b5f82511480156107e657505f8473ffffffffffffffffffffffffffffffffffffffff163b145b1561082857836040517f9996b31500000000000000000000000000000000000000000000000000000000815260040161081f9190610ae5565b60405180910390fd5b819050610831565b5b9392505050565b5f8151111561084a5780518082602001fd5b6040517f1425ea4200000000000000000000000000000000000000000000000000000000815260040160405180910390fd5b5f819050919050565b61088e8161087c565b82525050565b5f6020820190506108a75f830184610885565b92915050565b5f80fd5b5f80fd5b5f73ffffffffffffffffffffffffffffffffffffffff82169050919050565b5f6108de826108b5565b9050919050565b6108ee816108d4565b81146108f8575f80fd5b50565b5f81359050610909816108e5565b92915050565b5f60208284031215610924576109236108ad565b5b5f610931848285016108fb565b91505092915050565b5f610944826108b5565b9050919050565b5f6109558261093a565b9050919050565b6109658161094b565b811461096f575f80fd5b50565b5f813590506109808161095c565b92915050565b61098f8161093a565b8114610999575f80fd5b50565b5f813590506109aa81610986565b92915050565b5f80604083850312156109c6576109c56108ad565b5b5f6109d385828601610972565b92505060206109e48582860161099c565b9150509250929050565b6109f78161087c565b8114610a01575f80fd5b50565b5f81359050610a12816109ee565b92915050565b5f80fd5b5f80fd5b5f80fd5b5f8083601f840112610a3957610a38610a18565b5b8235905067ffffffffffffffff811115610a5657610a55610a1c565b5b602083019150836001820283011115610a7257610a71610a20565b5b9250929050565b5f805f60408486031215610a9057610a8f6108ad565b5b5f610a9d86828701610a04565b935050602084013567ffffffffffffffff811115610abe57610abd6108b1565b5b610aca86828701610a24565b92509250509250925092565b610adf8161093a565b82525050565b5f602082019050610af85f830184610ad6565b92915050565b5f60208284031215610b1357610b126108ad565b5b5f610b208482850161099c565b91505092915050565b5f82825260208201905092915050565b7f5945573a206e6f7468696e6720746f20737765657000000000000000000000005f82015250565b5f610b6d601583610b29565b9150610b7882610b39565b602082019050919050565b5f6020820190508181035f830152610b9a81610b61565b9050919050565b5f81519050610baf816109ee565b92915050565b5f60208284031215610bca57610bc96108ad565b5b5f610bd784828501610ba1565b91505092915050565b828183375f83830152505050565b5f601f19601f8301169050919050565b5f610c098385610b29565b9350610c16838584610be0565b610c1f83610bee565b840190509392505050565b5f606082019050610c3d5f830187610885565b8181036020830152610c50818587610bfe565b9050610c5f6040830184610ad6565b95945050505050565b5f604082019050610c7b5f830185610ad6565b610c886020830184610885565b9392505050565b5f8115159050919050565b610ca381610c8f565b8114610cad575f80fd5b50565b5f81519050610cbe81610c9a565b92915050565b5f60208284031215610cd957610cd86108ad565b5b5f610ce684828501610cb0565b91505092915050565b5f81519050919050565b5f81905092915050565b5f5b83811015610d20578082015181840152602081019050610d05565b5f8484015250505050565b5f610d3582610cef565b610d3f8185610cf9565b9350610d4f818560208601610d03565b80840191505092915050565b5f610d668284610d2b565b91508190509291505056fea2646970667358221220b7f7b303dd8dc21253a329c6a1fabbb5c64358e749571ccf0a5385d1fe3d3bce64736f6c63430008140033","linkReferences":{}},"methodIdentifiers":{"owner()":"8da5cb5b","renounceOwnership()":"715018a6","reportProfit(uint256,string)":"762581b6","sweepETH(address)":"1163b2b0","sweepToken(address,address)":"258836fe","transferOwnership(address)":"f2fde38b"},"id":37}