{"abi":[{"type":"constructor","inputs":[{"name":"initialOwner","type":"address","internalType":"address"}],"stateMutability":"nonpayable"},{"type":"function","name":"DOMAIN_SEPARATOR","inputs":[],"outputs":[{"name":"","type":"bytes32","internalType":"bytes32"}],"stateMutability":"view"},{"type":"function","name":"allowance","inputs":[{"name":"owner","type":"address","internalType":"address"},{"name":"spender","type":"address","internalType":"address"}],"outputs":[{"name":"","type":"uint256","internalType":"uint256"}],"stateMutability":"view"},{"type":"function","name":"approve","inputs":[{"name":"spender","type":"address","internalType":"address"},{"name":"value","type":"uint256","internalType":"uint256"}],"outputs":[{"name":"","type":"bool","internalType":"bool"}],"stateMutability":"nonpayable"},{"type":"function","name":"balanceOf","inputs":[{"name":"account","type":"address","internalType":"address"}],"outputs":[{"name":"","type":"uint256","internalType":"uint256"}],"stateMutability":"view"},{"type":"function","name":"burn","inputs":[{"name":"from","type":"address","internalType":"address"},{"name":"amount","type":"uint256","internalType":"uint256"}],"outputs":[],"stateMutability":"nonpayable"},{"type":"function","name":"decimals","inputs":[],"outputs":[{"name":"","type":"uint8","internalType":"uint8"}],"stateMutability":"view"},{"type":"function","name":"eip712Domain","inputs":[],"outputs":[{"name":"fields","type":"bytes1","internalType":"bytes1"},{"name":"name","type":"string","internalType":"string"},{"name":"version","type":"string","internalType":"string"},{"name":"chainId","type":"uint256","internalType":"uint256"},{"name":"verifyingContract","type":"address","internalType":"address"},{"name":"salt","type":"bytes32","internalType":"bytes32"},{"name":"extensions","type":"uint256[]","internalType":"uint256[]"}],"stateMutability":"view"},{"type":"function","name":"mint","inputs":[{"name":"to","type":"address","internalType":"address"},{"name":"amount","type":"uint256","internalType":"uint256"}],"outputs":[],"stateMutability":"nonpayable"},{"type":"function","name":"name","inputs":[],"outputs":[{"name":"","type":"string","internalType":"string"}],"stateMutability":"view"},{"type":"function","name":"nonces","inputs":[{"name":"owner","type":"address","internalType":"address"}],"outputs":[{"name":"","type":"uint256","internalType":"uint256"}],"stateMutability":"view"},{"type":"function","name":"owner","inputs":[],"outputs":[{"name":"","type":"address","internalType":"address"}],"stateMutability":"view"},{"type":"function","name":"ownerMint","inputs":[{"name":"to","type":"address","internalType":"address"},{"name":"amount","type":"uint256","internalType":"uint256"}],"outputs":[],"stateMutability":"nonpayable"},{"type":"function","name":"permit","inputs":[{"name":"owner","type":"address","internalType":"address"},{"name":"spender","type":"address","internalType":"address"},{"name":"value","type":"uint256","internalType":"uint256"},{"name":"deadline","type":"uint256","internalType":"uint256"},{"name":"v","type":"uint8","internalType":"uint8"},{"name":"r","type":"bytes32","internalType":"bytes32"},{"name":"s","type":"bytes32","internalType":"bytes32"}],"outputs":[],"stateMutability":"nonpayable"},{"type":"function","name":"renounceOwnership","inputs":[],"outputs":[],"stateMutability":"nonpayable"},{"type":"function","name":"setVault","inputs":[{"name":"vault","type":"address","internalType":"address"},{"name":"allowed","type":"bool","internalType":"bool"}],"outputs":[],"stateMutability":"nonpayable"},{"type":"function","name":"symbol","inputs":[],"outputs":[{"name":"","type":"string","internalType":"string"}],"stateMutability":"view"},{"type":"function","name":"totalSupply","inputs":[],"outputs":[{"name":"","type":"uint256","internalType":"uint256"}],"stateMutability":"view"},{"type":"function","name":"transfer","inputs":[{"name":"to","type":"address","internalType":"address"},{"name":"value","type":"uint256","internalType":"uint256"}],"outputs":[{"name":"","type":"bool","internalType":"bool"}],"stateMutability":"nonpayable"},{"type":"function","name":"transferFrom","inputs":[{"name":"from","type":"address","internalType":"address"},{"name":"to","type":"address","internalType":"address"},{"name":"value","type":"uint256","internalType":"uint256"}],"outputs":[{"name":"","type":"bool","internalType":"bool"}],"stateMutability":"nonpayable"},{"type":"function","name":"transferOwnership","inputs":[{"name":"newOwner","type":"address","internalType":"address"}],"outputs":[],"stateMutability":"nonpayable"},{"type":"function","name":"vaults","inputs":[{"name":"","type":"address","internalType":"address"}],"outputs":[{"name":"","type":"bool","internalType":"bool"}],"stateMutability":"view"},{"type":"event","name":"Approval","inputs":[{"name":"owner","type":"address","indexed":true,"internalType":"address"},{"name":"spender","type":"address","indexed":true,"internalType":"address"},{"name":"value","type":"uint256","indexed":false,"internalType":"uint256"}],"anonymous":false},{"type":"event","name":"EIP712DomainChanged","inputs":[],"anonymous":false},{"type":"event","name":"Minted","inputs":[{"name":"to","type":"address","indexed":true,"internalType":"address"},{"name":"amount","type":"uint256","indexed":false,"internalType":"uint256"},{"name":"vault","type":"address","indexed":true,"internalType":"address"}],"anonymous":false},{"type":"event","name":"OwnershipTransferred","inputs":[{"name":"previousOwner","type":"address","indexed":true,"internalType":"address"},{"name":"newOwner","type":"address","indexed":true,"internalType":"address"}],"anonymous":false},{"type":"event","name":"Transfer","inputs":[{"name":"from","type":"address","indexed":true,"internalType":"address"},{"name":"to","type":"address","indexed":true,"internalType":"address"},{"name":"value","type":"uint256","indexed":false,"internalType":"uint256"}],"anonymous":false},{"type":"event","name":"VaultUpdated","inputs":[{"name":"vault","type":"address","indexed":true,"internalType":"address"},{"name":"allowed","type":"bool","indexed":false,"internalType":"bool"}],"anonymous":false},{"type":"error","name":"ECDSAInvalidSignature","inputs":[]},{"type":"error","name":"ECDSAInvalidSignatureLength","inputs":[{"name":"length","type":"uint256","internalType":"uint256"}]},{"type":"error","name":"ECDSAInvalidSignatureS","inputs":[{"name":"s","type":"bytes32","internalType":"bytes32"}]},{"type":"error","name":"ERC20InsufficientAllowance","inputs":[{"name":"spender","type":"address","internalType":"address"},{"name":"allowance","type":"uint256","internalType":"uint256"},{"name":"needed","type":"uint256","internalType":"uint256"}]},{"type":"error","name":"ERC20InsufficientBalance","inputs":[{"name":"sender","type":"address","internalType":"address"},{"name":"balance","type":"uint256","internalType":"uint256"},{"name":"needed","type":"uint256","internalType":"uint256"}]},{"type":"error","name":"ERC20InvalidApprover","inputs":[{"name":"approver","type":"address","internalType":"address"}]},{"type":"error","name":"ERC20InvalidReceiver","inputs":[{"name":"receiver","type":"address","internalType":"address"}]},{"type":"error","name":"ERC20InvalidSender","inputs":[{"name":"sender","type":"address","internalType":"address"}]},{"type":"error","name":"ERC20InvalidSpender","inputs":[{"name":"spender","type":"address","internalType":"address"}]},{"type":"error","name":"ERC2612ExpiredSignature","inputs":[{"name":"deadline","type":"uint256","internalType":"uint256"}]},{"type":"error","name":"ERC2612InvalidSigner","inputs":[{"name":"signer","type":"address","internalType":"address"},{"name":"owner","type":"address","internalType":"address"}]},{"type":"error","name":"InvalidAccountNonce","inputs":[{"name":"account","type":"address","internalType":"address"},{"name":"currentNonce","type":"uint256","internalType":"uint256"}]},{"type":"error","name":"InvalidShortString","inputs":[]},{"type":"error","name":"OwnableInvalidOwner","inputs":[{"name":"owner","type":"address","internalType":"address"}]},{"type":"error","name":"OwnableUnauthorizedAccount","inputs":[{"name":"account","type":"address","internalType":"address"}]},{"type":"error","name":"StringTooLong","inputs":[{"name":"str","type":"string","internalType":"string"}]}],"bytecode":{"object":"0x610160346200051c57601f62001b6038819003918201601f19168301916001600160401b03831184841017620002fd578084926020946040528339810103126200051c57516001600160a01b03811681036200051c57604051620000638162000520565b600681526508c988aa886960d31b9182602083015260405191620000878362000520565b6006835283602084015260405193620000a08562000520565b60068552602085015260405192620000b88462000520565b60018452603160f81b60208501528051906001600160401b038211620002fd5760035490600182811c9216801562000511575b6020831014620003ea5781601f8493116200049e575b50602090601f831160011462000415575f9262000409575b50508160011b915f199060031b1c1916176003555b83516001600160401b038111620002fd57600454600181811c91168015620003fe575b6020821014620003ea57601f811162000386575b50602094601f82116001146200031d579481929394955f9262000311575b50508160011b915f199060031b1c1916176004555b620001a3816200053c565b610120908152620001b484620006f4565b9161014092835260208151910120938460e0526020815191012093610100948086524660a0526040519060208201927f8b73c3c69bb8fe3d512ecc4cf759cc79239f7b179b0ffacaa9a75d522b39400f8452604083015260608201524660808201523060a082015260a0815260c081019181831060018060401b03841117620002fd576040839052815190206080523060c0526001600160a01b03851615620002e7575050600880546001600160a01b039485166001600160a01b03198216811790925560405194167f8be0079c531659141344cd1fd0a4f28419497f9722a3daafe3b4186f6b6457e05f80a36112be9384620008a2853960805184610f70015260a0518461103c015260c05184610f3a015260e05184610fbf01525183610fe5015251826105c5015251816105ef0152f35b631e4fbdf760e01b82525f60c490910152602490fd5b634e487b7160e01b5f52604160045260245ffd5b015190505f8062000183565b601f1982169560045f5260205f20915f5b8881106200036d5750836001959697981062000354575b505050811b0160045562000198565b01515f1960f88460031b161c191690555f808062000345565b919260206001819286850151815501940192016200032e565b60045f527f8a35acfbc15ff81a39ae7d344fd709f28e8600b4aa8c65c6b64bfe7fe36bd19b601f830160051c810160208410620003e2575b601f830160051c82018110620003d657505062000165565b5f8155600101620003be565b5080620003be565b634e487b7160e01b5f52602260045260245ffd5b90607f169062000151565b015190505f8062000119565b60035f9081527fc2575a0e9e593c00f959f8c92f12db2869c3395a3b0502d05e2516446f71f85b9350601f198516905b8181106200048557509084600195949392106200046c575b505050811b016003556200012e565b01515f1960f88460031b161c191690555f80806200045d565b9293602060018192878601518155019501930162000445565b60035f529091507fc2575a0e9e593c00f959f8c92f12db2869c3395a3b0502d05e2516446f71f85b601f840160051c8101916020851062000506575b90601f859493920160051c01905b818110620004f7575062000101565b5f8155849350600101620004e8565b9091508190620004da565b91607f1691620000eb565b5f80fd5b604081019081106001600160401b03821117620002fd57604052565b80516020919082811015620005d8575090601f8251116200057957808251920151908083106200056b57501790565b825f19910360031b1b161790565b90604051809263305a27a960e01b82528060048301528251908160248401525f935b828510620005be575050604492505f838284010152601f80199101168101030190fd5b84810182015186860160440152938101938593506200059b565b6001600160401b038111620002fd576005928354926001938481811c91168015620006e9575b83821014620003ea57601f8111620006b5575b5081601f84116001146200064f57509282939183925f9462000643575b50501b915f199060031b1c191617905560ff90565b015192505f806200062e565b919083601f198116875f52845f20945f905b888383106200069a575050501062000681575b505050811b01905560ff90565b01515f1960f88460031b161c191690555f808062000674565b85870151885590960195948501948793509081019062000661565b855f5284601f845f209201871c820191601f8601881c015b828110620006dd57505062000611565b5f8155018590620006cd565b90607f1690620005fe565b805160209081811015620007805750601f8251116200072157808251920151908083106200056b57501790565b90604051809263305a27a960e01b82528060048301528251908160248401525f935b82851062000766575050604492505f838284010152601f80199101168101030190fd5b848101820151868601604401529381019385935062000743565b906001600160401b038211620002fd57600654926001938481811c9116801562000896575b83821014620003ea57601f81116200085f575b5081601f8411600114620007f757509282939183925f94620007eb575b50501b915f199060031b1c19161760065560ff90565b015192505f80620007d5565b919083601f19811660065f52845f20945f905b888383106200084457505050106200082b575b505050811b0160065560ff90565b01515f1960f88460031b161c191690555f80806200081d565b8587015188559096019594850194879350908101906200080a565b60065f5284601f845f20920160051c820191601f860160051c015b8281106200088a575050620007b8565b5f81550185906200087a565b90607f1690620007a556fe60806040818152600480361015610014575f80fd5b5f92833560e01c90816306fdde0314610ac957508063095ea7b314610a9f57806318160ddd14610a8057806323b872dd1461098e578063313ce567146109725780633644e5151461094e57806340c10f191461088457838163484b973c1461081c57508063627f66c61461079a57806370a0823114610763578063715018a6146107035780637ecebe00146106cb57806384b0196e146105ae5780638da5cb5b1461058557806395d89b411461049b5780639dc29fac146103bf578063a622ee7c14610381578063a9059cbb14610350578063d505accf146101e8578063dd62ed3e1461019b5763f2fde38b14610109575f80fd5b3461019757602036600319011261019757610122610bd8565b9061012b610c08565b6001600160a01b03918216928315610181575050600854826bffffffffffffffffffffffff60a01b821617600855167f8be0079c531659141344cd1fd0a4f28419497f9722a3daafe3b4186f6b6457e08380a380f35b51631e4fbdf760e01b8152908101849052602490fd5b8280fd5b5050346101e457806003193601126101e457806020926101b9610bd8565b6101c1610bf2565b6001600160a01b0391821683526001865283832091168252845220549051908152f35b5080fd5b508290346101e45760e03660031901126101e457610204610bd8565b61020c610bf2565b906044359260643560843560ff8116810361034c578142116103355760018060a01b0390818516928389526007602052898920908154916001830190558a519060208201927f6e71edae12b1b97f4d1f60370fef10105fa2faae0126114a169c64845d6126c98452868d840152858a1660608401528a608084015260a083015260c082015260c0815260e0810181811067ffffffffffffffff821117610322578b525190206102f0916102e7916102c1610f37565b908c519161190160f01b83526002830152602282015260c43591604260a4359220610e26565b90929192610eb4565b168181036103075786610304878787610d99565b80f35b87516325c0072360e11b815292830152602482015260449150fd5b634e487b7160e01b8b526041875260248bfd5b875163313c898160e11b8152808401839052602490fd5b8680fd5b5050346101e457806003193601126101e45760209061037a610370610bd8565b6024359033610cbe565b5160018152f35b5050346101e45760203660031901126101e45760209160ff9082906001600160a01b036103ac610bd8565b1681526009855220541690519015158152f35b508290346101e457826003193601126101e4576103da610bd8565b90602435906103e7610c08565b6001600160a01b038316928315610484578385528460205285852054918383106104505750508184957fddf252ad1be2c89b69c2b068fc378daa952ba7f163c4a11628f55a4df523b3ef936020938688528785520381872055816002540360025551908152a380f35b865163391434e360e21b81526001600160a01b03909216908201908152602081018390526040810184905281906060010390fd5b8551634b637e8f60e11b8152808301869052602490fd5b509034610197578260031936011261019757805191838154906104bd82610c34565b8086529260019280841690811561055a57506001146104fe575b6104fa86866104e8828b0383610c9c565b51918291602083526020830190610b9a565b0390f35b815294507f8a35acfbc15ff81a39ae7d344fd709f28e8600b4aa8c65c6b64bfe7fe36bd19b5b828610610542575050506104e88260206104fa95820101945f6104d7565b80546020878701810191909152909501948101610524565b90506104fa9750869350602092506104e894915060ff191682840152151560051b820101945f6104d7565b5050346101e457816003193601126101e45760085490516001600160a01b039091168152602090f35b5090346101975782600319360112610197576105e97f0000000000000000000000000000000000000000000000000000000000000000611062565b926106137f000000000000000000000000000000000000000000000000000000000000000061115c565b908251926020928385019585871067ffffffffffffffff8811176106b85750928061066e838896610661998b9996528686528151998a99600f60f81b8b5260e0868c015260e08b0190610b9a565b91898303908a0152610b9a565b924660608801523060808801528460a088015286840360c088015251928381520193925b8281106106a157505050500390f35b835185528695509381019392810192600101610692565b634e487b7160e01b845260419052602483fd5b5050346101e45760203660031901126101e45760209181906001600160a01b036106f3610bd8565b1681526007845220549051908152f35b833461076057806003193601126107605761071c610c08565b600880546001600160a01b0319811690915581906001600160a01b03167f8be0079c531659141344cd1fd0a4f28419497f9722a3daafe3b4186f6b6457e08280a380f35b80fd5b5050346101e45760203660031901126101e45760209181906001600160a01b0361078b610bd8565b16815280845220549051908152f35b5050346101e457806003193601126101e4576107b4610bd8565b60243590811515809203610818577f4f521ca1fe92f9212cc8773b6c44a5ed8937455d9daec3ed2eaef257f1e7f3ab916020916107ef610c08565b6001600160a01b031680865260098352848620805460ff191660ff84161790559351908152a280f35b8380fd5b8084346108815780600319360112610881577ffd1ba5519feb014ad2f631cbd516bd3cec96be935749391554d122972593e7bf6020610859610bd8565b60243593610865610c08565b61086f8583611214565b519384526001600160a01b031692a380f35b50fd5b503461019757816003193601126101975761089d610bd8565b9160243591338552600960205260ff8286205416156108fa57506108c18284611214565b5190815233916001600160a01b0316907ffd1ba5519feb014ad2f631cbd516bd3cec96be935749391554d122972593e7bf90602090a380f35b6020608492519162461bcd60e51b8352820152602960248201527f464c455443483a2063616c6c6572206973206e6f7420616e20617574686f72696044820152681e9959081d985d5b1d60ba1b6064820152fd5b5050346101e457816003193601126101e45760209061096b610f37565b9051908152f35b5050346101e457816003193601126101e4576020905160128152f35b508234610760576060366003190112610760576109a9610bd8565b6109b1610bf2565b916044359360018060a01b038316808352600160205286832033845260205286832054915f1983036109ec575b60208861037a898989610cbe565b868310610a54578115610a3d573315610a265750825260016020908152868320338452815291869020908590039055829061037a876109de565b8751634a1406b160e11b8152908101849052602490fd5b875163e602df0560e01b8152908101849052602490fd5b8751637dc7a0d960e11b8152339181019182526020820193909352604081018790528291506060010390fd5b5050346101e457816003193601126101e4576020906002549051908152f35b5050346101e457806003193601126101e45760209061037a610abf610bd8565b6024359033610d99565b8490843461019757826003193601126101975782600354610ae981610c34565b80855291600191808316908115610b725750600114610b15575b5050506104e8826104fa940383610c9c565b9450600385527fc2575a0e9e593c00f959f8c92f12db2869c3395a3b0502d05e2516446f71f85b5b828610610b5a575050506104e88260206104fa9582010194610b03565b80546020878701810191909152909501948101610b3d565b6104fa9750869350602092506104e894915060ff191682840152151560051b82010194610b03565b91908251928382525f5b848110610bc4575050825f602080949584010152601f8019910116010190565b602081830181015184830182015201610ba4565b600435906001600160a01b0382168203610bee57565b5f80fd5b602435906001600160a01b0382168203610bee57565b6008546001600160a01b03163303610c1c57565b60405163118cdaa760e01b8152336004820152602490fd5b90600182811c92168015610c62575b6020831014610c4e57565b634e487b7160e01b5f52602260045260245ffd5b91607f1691610c43565b6040810190811067ffffffffffffffff821117610c8857604052565b634e487b7160e01b5f52604160045260245ffd5b90601f8019910116810190811067ffffffffffffffff821117610c8857604052565b916001600160a01b03808416928315610d815716928315610d69575f9083825281602052604082205490838210610d37575091604082827fddf252ad1be2c89b69c2b068fc378daa952ba7f163c4a11628f55a4df523b3ef958760209652828652038282205586815220818154019055604051908152a3565b60405163391434e360e21b81526001600160a01b03919091166004820152602481019190915260448101839052606490fd5b60405163ec442f0560e01b81525f6004820152602490fd5b604051634b637e8f60e11b81525f6004820152602490fd5b6001600160a01b03908116918215610e0e5716918215610df65760207f8c5be1e5ebec7d5bd14f71427d1e84f3dd0314c0f7b2291e5b200ac8c7c3b92591835f526001825260405f20855f5282528060405f2055604051908152a3565b604051634a1406b160e11b81525f6004820152602490fd5b60405163e602df0560e01b81525f6004820152602490fd5b91907f7fffffffffffffffffffffffffffffff5d576e7357a4501ddfe92f46681b20a08411610ea957926020929160ff6080956040519485521684840152604083015260608201525f92839182805260015afa15610e9d5780516001600160a01b03811615610e9457918190565b50809160019190565b604051903d90823e3d90fd5b5050505f9160039190565b6004811015610f235780610ec6575050565b60018103610ee05760405163f645eedf60e01b8152600490fd5b60028103610f015760405163fce698f760e01b815260048101839052602490fd5b600314610f0b5750565b602490604051906335e2f38360e21b82526004820152fd5b634e487b7160e01b5f52602160045260245ffd5b307f00000000000000000000000000000000000000000000000000000000000000006001600160a01b03161480611039575b15610f92577f000000000000000000000000000000000000000000000000000000000000000090565b60405160208101907f8b73c3c69bb8fe3d512ecc4cf759cc79239f7b179b0ffacaa9a75d522b39400f82527f000000000000000000000000000000000000000000000000000000000000000060408201527f000000000000000000000000000000000000000000000000000000000000000060608201524660808201523060a082015260a0815260c0810181811067ffffffffffffffff821117610c885760405251902090565b507f00000000000000000000000000000000000000000000000000000000000000004614610f69565b60ff81146110a05760ff811690601f821161108e576040519161108483610c6c565b8252602082015290565b604051632cd44ac360e21b8152600490fd5b50604051600554815f6110b283610c34565b8083529260019081811690811561113a57506001146110dc575b506110d992500382610c9c565b90565b60055f90815291507f036b6384b5eca791c62761152d0c79bb0604c104a5fb6f4eb0703f3154bb3db05b84831061111f57506110d993505081016020015f6110cc565b81935090816020925483858901015201910190918492611106565b9050602092506110d994915060ff191682840152151560051b8201015f6110cc565b60ff811461117e5760ff811690601f821161108e576040519161108483610c6c565b50604051600654815f61119083610c34565b8083529260019081811690811561113a57506001146111b657506110d992500382610c9c565b60065f90815291507ff652222313e28459528d920b65115c16c04f3efc82aaedc97be59f3f377c0d3f5b8483106111f957506110d993505081016020015f6110cc565b819350908160209254838589010152019101909184926111e0565b6001600160a01b0316908115610d6957600254908082018092116112745760207fddf252ad1be2c89b69c2b068fc378daa952ba7f163c4a11628f55a4df523b3ef915f9360025584845283825260408420818154019055604051908152a3565b634e487b7160e01b5f52601160045260245ffdfea26469706673582212209ef7e34b6bfe875fd6facf7530f76ec0fb6a87717da07e7f3e77582c3d10d3cb64736f6c63430008140033","linkReferences":{}},"methodIdentifiers":{"DOMAIN_SEPARATOR()":"3644e515","allowance(address,address)":"dd62ed3e","approve(address,uint256)":"095ea7b3","balanceOf(address)":"70a08231","burn(address,uint256)":"9dc29fac","decimals()":"313ce567","eip712Domain()":"84b0196e","mint(address,uint256)":"40c10f19","name()":"06fdde03","nonces(address)":"7ecebe00","owner()":"8da5cb5b","ownerMint(address,uint256)":"484b973c","permit(address,address,uint256,uint256,uint8,bytes32,bytes32)":"d505accf","renounceOwnership()":"715018a6","setVault(address,bool)":"627f66c6","symbol()":"95d89b41","totalSupply()":"18160ddd","transfer(address,uint256)":"a9059cbb","transferFrom(address,address,uint256)":"23b872dd","transferOwnership(address)":"f2fde38b","vaults(address)":"a622ee7c"},"id":35}