{"abi":[{"type":"constructor","inputs":[{"name":"initialOwner","type":"address","internalType":"address"}],"stateMutability":"nonpayable"},{"type":"function","name":"DOMAIN_SEPARATOR","inputs":[],"outputs":[{"name":"","type":"bytes32","internalType":"bytes32"}],"stateMutability":"view"},{"type":"function","name":"allowance","inputs":[{"name":"owner","type":"address","internalType":"address"},{"name":"spender","type":"address","internalType":"address"}],"outputs":[{"name":"","type":"uint256","internalType":"uint256"}],"stateMutability":"view"},{"type":"function","name":"approve","inputs":[{"name":"spender","type":"address","internalType":"address"},{"name":"value","type":"uint256","internalType":"uint256"}],"outputs":[{"name":"","type":"bool","internalType":"bool"}],"stateMutability":"nonpayable"},{"type":"function","name":"balanceOf","inputs":[{"name":"account","type":"address","internalType":"address"}],"outputs":[{"name":"","type":"uint256","internalType":"uint256"}],"stateMutability":"view"},{"type":"function","name":"burn","inputs":[{"name":"from","type":"address","internalType":"address"},{"name":"amount","type":"uint256","internalType":"uint256"}],"outputs":[],"stateMutability":"nonpayable"},{"type":"function","name":"decimals","inputs":[],"outputs":[{"name":"","type":"uint8","internalType":"uint8"}],"stateMutability":"view"},{"type":"function","name":"eip712Domain","inputs":[],"outputs":[{"name":"fields","type":"bytes1","internalType":"bytes1"},{"name":"name","type":"string","internalType":"string"},{"name":"version","type":"string","internalType":"string"},{"name":"chainId","type":"uint256","internalType":"uint256"},{"name":"verifyingContract","type":"address","internalType":"address"},{"name":"salt","type":"bytes32","internalType":"bytes32"},{"name":"extensions","type":"uint256[]","internalType":"uint256[]"}],"stateMutability":"view"},{"type":"function","name":"mint","inputs":[{"name":"to","type":"address","internalType":"address"},{"name":"amount","type":"uint256","internalType":"uint256"}],"outputs":[],"stateMutability":"nonpayable"},{"type":"function","name":"name","inputs":[],"outputs":[{"name":"","type":"string","internalType":"string"}],"stateMutability":"view"},{"type":"function","name":"nonces","inputs":[{"name":"owner","type":"address","internalType":"address"}],"outputs":[{"name":"","type":"uint256","internalType":"uint256"}],"stateMutability":"view"},{"type":"function","name":"owner","inputs":[],"outputs":[{"name":"","type":"address","internalType":"address"}],"stateMutability":"view"},{"type":"function","name":"ownerMint","inputs":[{"name":"to","type":"address","internalType":"address"},{"name":"amount","type":"uint256","internalType":"uint256"}],"outputs":[],"stateMutability":"nonpayable"},{"type":"function","name":"permit","inputs":[{"name":"owner","type":"address","internalType":"address"},{"name":"spender","type":"address","internalType":"address"},{"name":"value","type":"uint256","internalType":"uint256"},{"name":"deadline","type":"uint256","internalType":"uint256"},{"name":"v","type":"uint8","internalType":"uint8"},{"name":"r","type":"bytes32","internalType":"bytes32"},{"name":"s","type":"bytes32","internalType":"bytes32"}],"outputs":[],"stateMutability":"nonpayable"},{"type":"function","name":"renounceOwnership","inputs":[],"outputs":[],"stateMutability":"nonpayable"},{"type":"function","name":"setVault","inputs":[{"name":"vault","type":"address","internalType":"address"},{"name":"allowed","type":"bool","internalType":"bool"}],"outputs":[],"stateMutability":"nonpayable"},{"type":"function","name":"symbol","inputs":[],"outputs":[{"name":"","type":"string","internalType":"string"}],"stateMutability":"view"},{"type":"function","name":"totalSupply","inputs":[],"outputs":[{"name":"","type":"uint256","internalType":"uint256"}],"stateMutability":"view"},{"type":"function","name":"transfer","inputs":[{"name":"to","type":"address","internalType":"address"},{"name":"value","type":"uint256","internalType":"uint256"}],"outputs":[{"name":"","type":"bool","internalType":"bool"}],"stateMutability":"nonpayable"},{"type":"function","name":"transferFrom","inputs":[{"name":"from","type":"address","internalType":"address"},{"name":"to","type":"address","internalType":"address"},{"name":"value","type":"uint256","internalType":"uint256"}],"outputs":[{"name":"","type":"bool","internalType":"bool"}],"stateMutability":"nonpayable"},{"type":"function","name":"transferOwnership","inputs":[{"name":"newOwner","type":"address","internalType":"address"}],"outputs":[],"stateMutability":"nonpayable"},{"type":"function","name":"vaults","inputs":[{"name":"","type":"address","internalType":"address"}],"outputs":[{"name":"","type":"bool","internalType":"bool"}],"stateMutability":"view"},{"type":"event","name":"Approval","inputs":[{"name":"owner","type":"address","indexed":true,"internalType":"address"},{"name":"spender","type":"address","indexed":true,"internalType":"address"},{"name":"value","type":"uint256","indexed":false,"internalType":"uint256"}],"anonymous":false},{"type":"event","name":"EIP712DomainChanged","inputs":[],"anonymous":false},{"type":"event","name":"Minted","inputs":[{"name":"to","type":"address","indexed":true,"internalType":"address"},{"name":"amount","type":"uint256","indexed":false,"internalType":"uint256"},{"name":"vault","type":"address","indexed":true,"internalType":"address"}],"anonymous":false},{"type":"event","name":"OwnershipTransferred","inputs":[{"name":"previousOwner","type":"address","indexed":true,"internalType":"address"},{"name":"newOwner","type":"address","indexed":true,"internalType":"address"}],"anonymous":false},{"type":"event","name":"Transfer","inputs":[{"name":"from","type":"address","indexed":true,"internalType":"address"},{"name":"to","type":"address","indexed":true,"internalType":"address"},{"name":"value","type":"uint256","indexed":false,"internalType":"uint256"}],"anonymous":false},{"type":"event","name":"VaultUpdated","inputs":[{"name":"vault","type":"address","indexed":true,"internalType":"address"},{"name":"allowed","type":"bool","indexed":false,"internalType":"bool"}],"anonymous":false},{"type":"error","name":"ECDSAInvalidSignature","inputs":[]},{"type":"error","name":"ECDSAInvalidSignatureLength","inputs":[{"name":"length","type":"uint256","internalType":"uint256"}]},{"type":"error","name":"ECDSAInvalidSignatureS","inputs":[{"name":"s","type":"bytes32","internalType":"bytes32"}]},{"type":"error","name":"ERC20InsufficientAllowance","inputs":[{"name":"spender","type":"address","internalType":"address"},{"name":"allowance","type":"uint256","internalType":"uint256"},{"name":"needed","type":"uint256","internalType":"uint256"}]},{"type":"error","name":"ERC20InsufficientBalance","inputs":[{"name":"sender","type":"address","internalType":"address"},{"name":"balance","type":"uint256","internalType":"uint256"},{"name":"needed","type":"uint256","internalType":"uint256"}]},{"type":"error","name":"ERC20InvalidApprover","inputs":[{"name":"approver","type":"address","internalType":"address"}]},{"type":"error","name":"ERC20InvalidReceiver","inputs":[{"name":"receiver","type":"address","internalType":"address"}]},{"type":"error","name":"ERC20InvalidSender","inputs":[{"name":"sender","type":"address","internalType":"address"}]},{"type":"error","name":"ERC20InvalidSpender","inputs":[{"name":"spender","type":"address","internalType":"address"}]},{"type":"error","name":"ERC2612ExpiredSignature","inputs":[{"name":"deadline","type":"uint256","internalType":"uint256"}]},{"type":"error","name":"ERC2612InvalidSigner","inputs":[{"name":"signer","type":"address","internalType":"address"},{"name":"owner","type":"address","internalType":"address"}]},{"type":"error","name":"InvalidAccountNonce","inputs":[{"name":"account","type":"address","internalType":"address"},{"name":"currentNonce","type":"uint256","internalType":"uint256"}]},{"type":"error","name":"InvalidShortString","inputs":[]},{"type":"error","name":"OwnableInvalidOwner","inputs":[{"name":"owner","type":"address","internalType":"address"}]},{"type":"error","name":"OwnableUnauthorizedAccount","inputs":[{"name":"account","type":"address","internalType":"address"}]},{"type":"error","name":"StringTooLong","inputs":[{"name":"str","type":"string","internalType":"string"}]}],"bytecode":{"object":"0x61016060405234801562000011575f80fd5b5060405162002d9538038062002d958339818101604052810190620000379190620004c0565b806040518060400160405280600681526020017f464c455443480000000000000000000000000000000000000000000000000000815250806040518060400160405280600181526020017f31000000000000000000000000000000000000000000000000000000000000008152506040518060400160405280600681526020017f464c4554434800000000000000000000000000000000000000000000000000008152506040518060400160405280600681526020017f464c455443480000000000000000000000000000000000000000000000000000815250816003908162000122919062000754565b50806004908162000134919062000754565b5050506200014d6005836200027460201b90919060201c565b61012081815250506200016b6006826200027460201b90919060201c565b6101408181525050818051906020012060e08181525050808051906020012061010081815250504660a08181525050620001aa620002c960201b60201c565b608081815250503073ffffffffffffffffffffffffffffffffffffffff1660c08173ffffffffffffffffffffffffffffffffffffffff16815250505050505f73ffffffffffffffffffffffffffffffffffffffff168173ffffffffffffffffffffffffffffffffffffffff16036200025b575f6040517f1e4fbdf700000000000000000000000000000000000000000000000000000000815260040162000252919062000849565b60405180910390fd5b6200026c816200032560201b60201c565b505062000a34565b5f60208351101562000299576200029183620003e860201b60201c565b9050620002c3565b82620002ab836200045260201b60201c565b5f019081620002bb919062000754565b5060ff5f1b90505b92915050565b5f7f8b73c3c69bb8fe3d512ecc4cf759cc79239f7b179b0ffacaa9a75d522b39400f60e0516101005146306040516020016200030a9594939291906200088f565b60405160208183030381529060405280519060200120905090565b5f60085f9054906101000a900473ffffffffffffffffffffffffffffffffffffffff1690508160085f6101000a81548173ffffffffffffffffffffffffffffffffffffffff021916908373ffffffffffffffffffffffffffffffffffffffff1602179055508173ffffffffffffffffffffffffffffffffffffffff168173ffffffffffffffffffffffffffffffffffffffff167f8be0079c531659141344cd1fd0a4f28419497f9722a3daafe3b4186f6b6457e060405160405180910390a35050565b5f80829050601f815111156200043757826040517f305a27a90000000000000000000000000000000000000000000000000000000081526004016200042e919062000974565b60405180910390fd5b8051816200044590620009c5565b5f1c175f1b915050919050565b5f819050919050565b5f80fd5b5f73ffffffffffffffffffffffffffffffffffffffff82169050919050565b5f6200048a826200045f565b9050919050565b6200049c816200047e565b8114620004a7575f80fd5b50565b5f81519050620004ba8162000491565b92915050565b5f60208284031215620004d857620004d76200045b565b5b5f620004e784828501620004aa565b91505092915050565b5f81519050919050565b7f4e487b71000000000000000000000000000000000000000000000000000000005f52604160045260245ffd5b7f4e487b71000000000000000000000000000000000000000000000000000000005f52602260045260245ffd5b5f60028204905060018216806200056c57607f821691505b60208210810362000582576200058162000527565b5b50919050565b5f819050815f5260205f209050919050565b5f6020601f8301049050919050565b5f82821b905092915050565b5f60088302620005e67fffffffffffffffffffffffffffffffffffffffffffffffffffffffffffffffff82620005a9565b620005f28683620005a9565b95508019841693508086168417925050509392505050565b5f819050919050565b5f819050919050565b5f6200063c6200063662000630846200060a565b62000613565b6200060a565b9050919050565b5f819050919050565b62000657836200061c565b6200066f620006668262000643565b848454620005b5565b825550505050565b5f90565b6200068562000677565b620006928184846200064c565b505050565b5b81811015620006b957620006ad5f826200067b565b60018101905062000698565b5050565b601f8211156200070857620006d28162000588565b620006dd846200059a565b81016020851015620006ed578190505b62000705620006fc856200059a565b83018262000697565b50505b505050565b5f82821c905092915050565b5f6200072a5f19846008026200070d565b1980831691505092915050565b5f62000744838362000719565b9150826002028217905092915050565b6200075f82620004f0565b67ffffffffffffffff8111156200077b576200077a620004fa565b5b62000787825462000554565b62000794828285620006bd565b5f60209050601f831160018114620007ca575f8415620007b5578287015190505b620007c1858262000737565b86555062000830565b601f198416620007da8662000588565b5f5b828110156200080357848901518255600182019150602085019450602081019050620007dc565b868310156200082357848901516200081f601f89168262000719565b8355505b6001600288020188555050505b505050505050565b62000843816200047e565b82525050565b5f6020820190506200085e5f83018462000838565b92915050565b5f819050919050565b620008788162000864565b82525050565b62000889816200060a565b82525050565b5f60a082019050620008a45f8301886200086d565b620008b360208301876200086d565b620008c260408301866200086d565b620008d160608301856200087e565b620008e0608083018462000838565b9695505050505050565b5f82825260208201905092915050565b5f5b8381101562000919578082015181840152602081019050620008fc565b5f8484015250505050565b5f601f19601f8301169050919050565b5f6200094082620004f0565b6200094c8185620008ea565b93506200095e818560208601620008fa565b620009698162000924565b840191505092915050565b5f6020820190508181035f8301526200098e818462000934565b905092915050565b5f81519050919050565b5f819050602082019050919050565b5f620009bc825162000864565b80915050919050565b5f620009d18262000996565b82620009dd84620009a0565b9050620009ea81620009af565b9250602082101562000a2d5762000a287fffffffffffffffffffffffffffffffffffffffffffffffffffffffffffffffff83602003600802620005a9565b831692505b5050919050565b60805160a05160c05160e05161010051610120516101405161230f62000a865f395f61104101525f61100601525f6115b901525f61159801525f610d3b01525f610d9101525f610dba015261230f5ff3fe608060405234801561000f575f80fd5b5060043610610135575f3560e01c8063715018a6116100b65780639dc29fac1161007a5780639dc29fac1461032f578063a622ee7c1461034b578063a9059cbb1461037b578063d505accf146103ab578063dd62ed3e146103c7578063f2fde38b146103f757610135565b8063715018a6146102955780637ecebe001461029f57806384b0196e146102cf5780638da5cb5b146102f357806395d89b411461031157610135565b80633644e515116100fd5780633644e515146101f357806340c10f1914610211578063484b973c1461022d578063627f66c61461024957806370a082311461026557610135565b806306fdde0314610139578063095ea7b31461015757806318160ddd1461018757806323b872dd146101a5578063313ce567146101d5575b5f80fd5b610141610413565b60405161014e9190611a89565b60405180910390f35b610171600480360381019061016c9190611b3a565b6104a3565b60405161017e9190611b92565b60405180910390f35b61018f6104c5565b60405161019c9190611bba565b60405180910390f35b6101bf60048036038101906101ba9190611bd3565b6104ce565b6040516101cc9190611b92565b60405180910390f35b6101dd6104fc565b6040516101ea9190611c3e565b60405180910390f35b6101fb610504565b6040516102089190611c6f565b60405180910390f35b61022b60048036038101906102269190611b3a565b610512565b005b61024760048036038101906102429190611b3a565b61060e565b005b610263600480360381019061025e9190611cb2565b610689565b005b61027f600480360381019061027a9190611cf0565b610737565b60405161028c9190611bba565b60405180910390f35b61029d61077c565b005b6102b960048036038101906102b49190611cf0565b61078f565b6040516102c69190611bba565b60405180910390f35b6102d76107a0565b6040516102ea9796959493929190611e1b565b60405180910390f35b6102fb610845565b6040516103089190611e9d565b60405180910390f35b61031961086d565b6040516103269190611a89565b60405180910390f35b61034960048036038101906103449190611b3a565b6108fd565b005b61036560048036038101906103609190611cf0565b610913565b6040516103729190611b92565b60405180910390f35b61039560048036038101906103909190611b3a565b610930565b6040516103a29190611b92565b60405180910390f35b6103c560048036038101906103c09190611f0a565b610952565b005b6103e160048036038101906103dc9190611fa7565b610a97565b6040516103ee9190611bba565b60405180910390f35b610411600480360381019061040c9190611cf0565b610b19565b005b60606003805461042290612012565b80601f016020809104026020016040519081016040528092919081815260200182805461044e90612012565b80156104995780601f1061047057610100808354040283529160200191610499565b820191905f5260205f20905b81548152906001019060200180831161047c57829003601f168201915b5050505050905090565b5f806104ad610b9d565b90506104ba818585610ba4565b600191505092915050565b5f600254905090565b5f806104d8610b9d565b90506104e5858285610bb6565b6104f0858585610c48565b60019150509392505050565b5f6012905090565b5f61050d610d38565b905090565b60095f3373ffffffffffffffffffffffffffffffffffffffff1673ffffffffffffffffffffffffffffffffffffffff1681526020019081526020015f205f9054906101000a900460ff1661059b576040517f08c379a0000000000000000000000000000000000000000000000000000000008152600401610592906120b2565b60405180910390fd5b6105a58282610dee565b3373ffffffffffffffffffffffffffffffffffffffff168273ffffffffffffffffffffffffffffffffffffffff167ffd1ba5519feb014ad2f631cbd516bd3cec96be935749391554d122972593e7bf836040516106029190611bba565b60405180910390a35050565b610616610e6d565b6106208282610dee565b5f73ffffffffffffffffffffffffffffffffffffffff168273ffffffffffffffffffffffffffffffffffffffff167ffd1ba5519feb014ad2f631cbd516bd3cec96be935749391554d122972593e7bf8360405161067d9190611bba565b60405180910390a35050565b610691610e6d565b8060095f8473ffffffffffffffffffffffffffffffffffffffff1673ffffffffffffffffffffffffffffffffffffffff1681526020019081526020015f205f6101000a81548160ff0219169083151502179055508173ffffffffffffffffffffffffffffffffffffffff167f4f521ca1fe92f9212cc8773b6c44a5ed8937455d9daec3ed2eaef257f1e7f3ab8260405161072b9190611b92565b60405180910390a25050565b5f805f8373ffffffffffffffffffffffffffffffffffffffff1673ffffffffffffffffffffffffffffffffffffffff1681526020019081526020015f20549050919050565b610784610e6d565b61078d5f610ef4565b565b5f61079982610fb7565b9050919050565b5f6060805f805f60606107b1610ffd565b6107b9611038565b46305f801b5f67ffffffffffffffff8111156107d8576107d76120d0565b5b6040519080825280602002602001820160405280156108065781602001602082028036833780820191505090505b507f0f00000000000000000000000000000000000000000000000000000000000000959493929190965096509650965096509650965090919293949596565b5f60085f9054906101000a900473ffffffffffffffffffffffffffffffffffffffff16905090565b60606004805461087c90612012565b80601f01602080910402602001604051908101604052809291908181526020018280546108a890612012565b80156108f35780601f106108ca576101008083540402835291602001916108f3565b820191905f5260205f20905b8154815290600101906020018083116108d657829003601f168201915b5050505050905090565b610905610e6d565b61090f8282611073565b5050565b6009602052805f5260405f205f915054906101000a900460ff1681565b5f8061093a610b9d565b9050610947818585610c48565b600191505092915050565b8342111561099757836040517f6279130200000000000000000000000000000000000000000000000000000000815260040161098e9190611bba565b60405180910390fd5b5f7f6e71edae12b1b97f4d1f60370fef10105fa2faae0126114a169c64845d6126c98888886109c58c6110f2565b896040516020016109db969594939291906120fd565b6040516020818303038152906040528051906020012090505f6109fd82611145565b90505f610a0c8287878761115e565b90508973ffffffffffffffffffffffffffffffffffffffff168173ffffffffffffffffffffffffffffffffffffffff1614610a8057808a6040517f4b800e46000000000000000000000000000000000000000000000000000000008152600401610a7792919061215c565b60405180910390fd5b610a8b8a8a8a610ba4565b50505050505050505050565b5f60015f8473ffffffffffffffffffffffffffffffffffffffff1673ffffffffffffffffffffffffffffffffffffffff1681526020019081526020015f205f8373ffffffffffffffffffffffffffffffffffffffff1673ffffffffffffffffffffffffffffffffffffffff1681526020019081526020015f2054905092915050565b610b21610e6d565b5f73ffffffffffffffffffffffffffffffffffffffff168173ffffffffffffffffffffffffffffffffffffffff1603610b91575f6040517f1e4fbdf7000000000000000000000000000000000000000000000000000000008152600401610b889190611e9d565b60405180910390fd5b610b9a81610ef4565b50565b5f33905090565b610bb1838383600161118c565b505050565b5f610bc18484610a97565b90507fffffffffffffffffffffffffffffffffffffffffffffffffffffffffffffffff8114610c425781811015610c33578281836040517ffb8f41b2000000000000000000000000000000000000000000000000000000008152600401610c2a93929190612183565b60405180910390fd5b610c4184848484035f61118c565b5b50505050565b5f73ffffffffffffffffffffffffffffffffffffffff168373ffffffffffffffffffffffffffffffffffffffff1603610cb8575f6040517f96c6fd1e000000000000000000000000000000000000000000000000000000008152600401610caf9190611e9d565b60405180910390fd5b5f73ffffffffffffffffffffffffffffffffffffffff168273ffffffffffffffffffffffffffffffffffffffff1603610d28575f6040517fec442f05000000000000000000000000000000000000000000000000000000008152600401610d1f9190611e9d565b60405180910390fd5b610d3383838361135b565b505050565b5f7f000000000000000000000000000000000000000000000000000000000000000073ffffffffffffffffffffffffffffffffffffffff163073ffffffffffffffffffffffffffffffffffffffff16148015610db357507f000000000000000000000000000000000000000000000000000000000000000046145b15610de0577f00000000000000000000000000000000000000000000000000000000000000009050610deb565b610de8611574565b90505b90565b5f73ffffffffffffffffffffffffffffffffffffffff168273ffffffffffffffffffffffffffffffffffffffff1603610e5e575f6040517fec442f05000000000000000000000000000000000000000000000000000000008152600401610e559190611e9d565b60405180910390fd5b610e695f838361135b565b5050565b610e75610b9d565b73ffffffffffffffffffffffffffffffffffffffff16610e93610845565b73ffffffffffffffffffffffffffffffffffffffff1614610ef257610eb6610b9d565b6040517f118cdaa7000000000000000000000000000000000000000000000000000000008152600401610ee99190611e9d565b60405180910390fd5b565b5f60085f9054906101000a900473ffffffffffffffffffffffffffffffffffffffff1690508160085f6101000a81548173ffffffffffffffffffffffffffffffffffffffff021916908373ffffffffffffffffffffffffffffffffffffffff1602179055508173ffffffffffffffffffffffffffffffffffffffff168173ffffffffffffffffffffffffffffffffffffffff167f8be0079c531659141344cd1fd0a4f28419497f9722a3daafe3b4186f6b6457e060405160405180910390a35050565b5f60075f8373ffffffffffffffffffffffffffffffffffffffff1673ffffffffffffffffffffffffffffffffffffffff1681526020019081526020015f20549050919050565b606061103360057f000000000000000000000000000000000000000000000000000000000000000061160990919063ffffffff16565b905090565b606061106e60067f000000000000000000000000000000000000000000000000000000000000000061160990919063ffffffff16565b905090565b5f73ffffffffffffffffffffffffffffffffffffffff168273ffffffffffffffffffffffffffffffffffffffff16036110e3575f6040517f96c6fd1e0000000000000000000000000000000000000000000000000000000081526004016110da9190611e9d565b60405180910390fd5b6110ee825f8361135b565b5050565b5f60075f8373ffffffffffffffffffffffffffffffffffffffff1673ffffffffffffffffffffffffffffffffffffffff1681526020019081526020015f205f815480929190600101919050559050919050565b5f611157611151610d38565b836116b6565b9050919050565b5f805f8061116e888888886116f6565b92509250925061117e82826117dd565b829350505050949350505050565b5f73ffffffffffffffffffffffffffffffffffffffff168473ffffffffffffffffffffffffffffffffffffffff16036111fc575f6040517fe602df050000000000000000000000000000000000000000000000000000000081526004016111f39190611e9d565b60405180910390fd5b5f73ffffffffffffffffffffffffffffffffffffffff168373ffffffffffffffffffffffffffffffffffffffff160361126c575f6040517f94280d620000000000000000000000000000000000000000000000000000000081526004016112639190611e9d565b60405180910390fd5b8160015f8673ffffffffffffffffffffffffffffffffffffffff1673ffffffffffffffffffffffffffffffffffffffff1681526020019081526020015f205f8573ffffffffffffffffffffffffffffffffffffffff1673ffffffffffffffffffffffffffffffffffffffff1681526020019081526020015f20819055508015611355578273ffffffffffffffffffffffffffffffffffffffff168473ffffffffffffffffffffffffffffffffffffffff167f8c5be1e5ebec7d5bd14f71427d1e84f3dd0314c0f7b2291e5b200ac8c7c3b9258460405161134c9190611bba565b60405180910390a35b50505050565b5f73ffffffffffffffffffffffffffffffffffffffff168373ffffffffffffffffffffffffffffffffffffffff16036113ab578060025f82825461139f91906121e5565b92505081905550611479565b5f805f8573ffffffffffffffffffffffffffffffffffffffff1673ffffffffffffffffffffffffffffffffffffffff1681526020019081526020015f2054905081811015611434578381836040517fe450d38c00000000000000000000000000000000000000000000000000000000815260040161142b93929190612183565b60405180910390fd5b8181035f808673ffffffffffffffffffffffffffffffffffffffff1673ffffffffffffffffffffffffffffffffffffffff1681526020019081526020015f2081905550505b5f73ffffffffffffffffffffffffffffffffffffffff168273ffffffffffffffffffffffffffffffffffffffff16036114c0578060025f828254039250508190555061150a565b805f808473ffffffffffffffffffffffffffffffffffffffff1673ffffffffffffffffffffffffffffffffffffffff1681526020019081526020015f205f82825401925050819055505b8173ffffffffffffffffffffffffffffffffffffffff168373ffffffffffffffffffffffffffffffffffffffff167fddf252ad1be2c89b69c2b068fc378daa952ba7f163c4a11628f55a4df523b3ef836040516115679190611bba565b60405180910390a3505050565b5f7f8b73c3c69bb8fe3d512ecc4cf759cc79239f7b179b0ffacaa9a75d522b39400f7f00000000000000000000000000000000000000000000000000000000000000007f000000000000000000000000000000000000000000000000000000000000000046306040516020016115ee959493929190612218565b60405160208183030381529060405280519060200120905090565b606060ff5f1b83146116255761161e8361193f565b90506116b0565b81805461163190612012565b80601f016020809104026020016040519081016040528092919081815260200182805461165d90612012565b80156116a85780601f1061167f576101008083540402835291602001916116a8565b820191905f5260205f20905b81548152906001019060200180831161168b57829003601f168201915b505050505090505b92915050565b5f6040517f190100000000000000000000000000000000000000000000000000000000000081528360028201528260228201526042812091505092915050565b5f805f7f7fffffffffffffffffffffffffffffff5d576e7357a4501ddfe92f46681b20a0845f1c1115611732575f6003859250925092506117d3565b5f6001888888886040515f81526020016040526040516117559493929190612269565b6020604051602081039080840390855afa158015611775573d5f803e3d5ffd5b5050506020604051035190505f73ffffffffffffffffffffffffffffffffffffffff168173ffffffffffffffffffffffffffffffffffffffff16036117c6575f60015f801b935093509350506117d3565b805f805f1b935093509350505b9450945094915050565b5f60038111156117f0576117ef6122ac565b5b826003811115611803576118026122ac565b5b031561193b576001600381111561181d5761181c6122ac565b5b8260038111156118305761182f6122ac565b5b03611867576040517ff645eedf00000000000000000000000000000000000000000000000000000000815260040160405180910390fd5b6002600381111561187b5761187a6122ac565b5b82600381111561188e5761188d6122ac565b5b036118d257805f1c6040517ffce698f70000000000000000000000000000000000000000000000000000000081526004016118c99190611bba565b60405180910390fd5b6003808111156118e5576118e46122ac565b5b8260038111156118f8576118f76122ac565b5b0361193a57806040517fd78bce0c0000000000000000000000000000000000000000000000000000000081526004016119319190611c6f565b60405180910390fd5b5b5050565b60605f61194b836119b1565b90505f602067ffffffffffffffff811115611969576119686120d0565b5b6040519080825280601f01601f19166020018201604052801561199b5781602001600182028036833780820191505090505b5090508181528360208201528092505050919050565b5f8060ff835f1c169050601f8111156119f6576040517fb3512b0c00000000000000000000000000000000000000000000000000000000815260040160405180910390fd5b80915050919050565b5f81519050919050565b5f82825260208201905092915050565b5f5b83811015611a36578082015181840152602081019050611a1b565b5f8484015250505050565b5f601f19601f8301169050919050565b5f611a5b826119ff565b611a658185611a09565b9350611a75818560208601611a19565b611a7e81611a41565b840191505092915050565b5f6020820190508181035f830152611aa18184611a51565b905092915050565b5f80fd5b5f73ffffffffffffffffffffffffffffffffffffffff82169050919050565b5f611ad682611aad565b9050919050565b611ae681611acc565b8114611af0575f80fd5b50565b5f81359050611b0181611add565b92915050565b5f819050919050565b611b1981611b07565b8114611b23575f80fd5b50565b5f81359050611b3481611b10565b92915050565b5f8060408385031215611b5057611b4f611aa9565b5b5f611b5d85828601611af3565b9250506020611b6e85828601611b26565b9150509250929050565b5f8115159050919050565b611b8c81611b78565b82525050565b5f602082019050611ba55f830184611b83565b92915050565b611bb481611b07565b82525050565b5f602082019050611bcd5f830184611bab565b92915050565b5f805f60608486031215611bea57611be9611aa9565b5b5f611bf786828701611af3565b9350506020611c0886828701611af3565b9250506040611c1986828701611b26565b9150509250925092565b5f60ff82169050919050565b611c3881611c23565b82525050565b5f602082019050611c515f830184611c2f565b92915050565b5f819050919050565b611c6981611c57565b82525050565b5f602082019050611c825f830184611c60565b92915050565b611c9181611b78565b8114611c9b575f80fd5b50565b5f81359050611cac81611c88565b92915050565b5f8060408385031215611cc857611cc7611aa9565b5b5f611cd585828601611af3565b9250506020611ce685828601611c9e565b9150509250929050565b5f60208284031215611d0557611d04611aa9565b5b5f611d1284828501611af3565b91505092915050565b5f7fff0000000000000000000000000000000000000000000000000000000000000082169050919050565b611d4f81611d1b565b82525050565b611d5e81611acc565b82525050565b5f81519050919050565b5f82825260208201905092915050565b5f819050602082019050919050565b611d9681611b07565b82525050565b5f611da78383611d8d565b60208301905092915050565b5f602082019050919050565b5f611dc982611d64565b611dd38185611d6e565b9350611dde83611d7e565b805f5b83811015611e0e578151611df58882611d9c565b9750611e0083611db3565b925050600181019050611de1565b5085935050505092915050565b5f60e082019050611e2e5f83018a611d46565b8181036020830152611e408189611a51565b90508181036040830152611e548188611a51565b9050611e636060830187611bab565b611e706080830186611d55565b611e7d60a0830185611c60565b81810360c0830152611e8f8184611dbf565b905098975050505050505050565b5f602082019050611eb05f830184611d55565b92915050565b611ebf81611c23565b8114611ec9575f80fd5b50565b5f81359050611eda81611eb6565b92915050565b611ee981611c57565b8114611ef3575f80fd5b50565b5f81359050611f0481611ee0565b92915050565b5f805f805f805f60e0888a031215611f2557611f24611aa9565b5b5f611f328a828b01611af3565b9750506020611f438a828b01611af3565b9650506040611f548a828b01611b26565b9550506060611f658a828b01611b26565b9450506080611f768a828b01611ecc565b93505060a0611f878a828b01611ef6565b92505060c0611f988a828b01611ef6565b91505092959891949750929550565b5f8060408385031215611fbd57611fbc611aa9565b5b5f611fca85828601611af3565b9250506020611fdb85828601611af3565b9150509250929050565b7f4e487b71000000000000000000000000000000000000000000000000000000005f52602260045260245ffd5b5f600282049050600182168061202957607f821691505b60208210810361203c5761203b611fe5565b5b50919050565b7f464c455443483a2063616c6c6572206973206e6f7420616e20617574686f72695f8201527f7a6564207661756c740000000000000000000000000000000000000000000000602082015250565b5f61209c602983611a09565b91506120a782612042565b604082019050919050565b5f6020820190508181035f8301526120c981612090565b9050919050565b7f4e487b71000000000000000000000000000000000000000000000000000000005f52604160045260245ffd5b5f60c0820190506121105f830189611c60565b61211d6020830188611d55565b61212a6040830187611d55565b6121376060830186611bab565b6121446080830185611bab565b61215160a0830184611bab565b979650505050505050565b5f60408201905061216f5f830185611d55565b61217c6020830184611d55565b9392505050565b5f6060820190506121965f830186611d55565b6121a36020830185611bab565b6121b06040830184611bab565b949350505050565b7f4e487b71000000000000000000000000000000000000000000000000000000005f52601160045260245ffd5b5f6121ef82611b07565b91506121fa83611b07565b9250828201905080821115612212576122116121b8565b5b92915050565b5f60a08201905061222b5f830188611c60565b6122386020830187611c60565b6122456040830186611c60565b6122526060830185611bab565b61225f6080830184611d55565b9695505050505050565b5f60808201905061227c5f830187611c60565b6122896020830186611c2f565b6122966040830185611c60565b6122a36060830184611c60565b95945050505050565b7f4e487b71000000000000000000000000000000000000000000000000000000005f52602160045260245ffdfea264697066735822122009f153e751997b7e9a9b6034984ded2edef73ec0e48a0f6512f0b99c0d9730a364736f6c63430008140033","linkReferences":{}},"methodIdentifiers":{"DOMAIN_SEPARATOR()":"3644e515","allowance(address,address)":"dd62ed3e","approve(address,uint256)":"095ea7b3","balanceOf(address)":"70a08231","burn(address,uint256)":"9dc29fac","decimals()":"313ce567","eip712Domain()":"84b0196e","mint(address,uint256)":"40c10f19","name()":"06fdde03","nonces(address)":"7ecebe00","owner()":"8da5cb5b","ownerMint(address,uint256)":"484b973c","permit(address,address,uint256,uint256,uint8,bytes32,bytes32)":"d505accf","renounceOwnership()":"715018a6","setVault(address,bool)":"627f66c6","symbol()":"95d89b41","totalSupply()":"18160ddd","transfer(address,uint256)":"a9059cbb","transferFrom(address,address,uint256)":"23b872dd","transferOwnership(address)":"f2fde38b","vaults(address)":"a622ee7c"},"id":35}